{
    "_format": "hh-sol-artifact-1",
    "contractName": "ChftyPizzas",
    "sourceName": "contracts/Chfty.sol",
    "abi": [
        {
            "inputs": [
                {
                    "internalType": "string",
                    "name": "_name",
                    "type": "string"
                },
                {
                    "internalType": "string",
                    "name": "_symbol",
                    "type": "string"
                },
                {
                    "internalType": "string",
                    "name": "_initBaseURI",
                    "type": "string"
                }
            ],
            "stateMutability": "nonpayable",
            "type": "constructor"
        },
        {
            "anonymous": false,
            "inputs": [
                {
                    "indexed": true,
                    "internalType": "address",
                    "name": "owner",
                    "type": "address"
                },
                {
                    "indexed": true,
                    "internalType": "address",
                    "name": "approved",
                    "type": "address"
                },
                {
                    "indexed": true,
                    "internalType": "uint256",
                    "name": "tokenId",
                    "type": "uint256"
                }
            ],
            "name": "Approval",
            "type": "event"
        },
        {
            "anonymous": false,
            "inputs": [
                {
                    "indexed": true,
                    "internalType": "address",
                    "name": "owner",
                    "type": "address"
                },
                {
                    "indexed": true,
                    "internalType": "address",
                    "name": "operator",
                    "type": "address"
                },
                {
                    "indexed": false,
                    "internalType": "bool",
                    "name": "approved",
                    "type": "bool"
                }
            ],
            "name": "ApprovalForAll",
            "type": "event"
        },
        {
            "anonymous": false,
            "inputs": [
                {
                    "indexed": true,
                    "internalType": "contract IERC20",
                    "name": "token",
                    "type": "address"
                },
                {
                    "indexed": false,
                    "internalType": "address",
                    "name": "to",
                    "type": "address"
                },
                {
                    "indexed": false,
                    "internalType": "uint256",
                    "name": "amount",
                    "type": "uint256"
                }
            ],
            "name": "ERC20PaymentReleased",
            "type": "event"
        },
        {
            "anonymous": false,
            "inputs": [
                {
                    "indexed": true,
                    "internalType": "address",
                    "name": "previousOwner",
                    "type": "address"
                },
                {
                    "indexed": true,
                    "internalType": "address",
                    "name": "newOwner",
                    "type": "address"
                }
            ],
            "name": "OwnershipTransferred",
            "type": "event"
        },
        {
            "anonymous": false,
            "inputs": [
                {
                    "indexed": false,
                    "internalType": "address",
                    "name": "account",
                    "type": "address"
                },
                {
                    "indexed": false,
                    "internalType": "uint256",
                    "name": "shares",
                    "type": "uint256"
                }
            ],
            "name": "PayeeAdded",
            "type": "event"
        },
        {
            "anonymous": false,
            "inputs": [
                {
                    "indexed": false,
                    "internalType": "address",
                    "name": "from",
                    "type": "address"
                },
                {
                    "indexed": false,
                    "internalType": "uint256",
                    "name": "amount",
                    "type": "uint256"
                }
            ],
            "name": "PaymentReceived",
            "type": "event"
        },
        {
            "anonymous": false,
            "inputs": [
                {
                    "indexed": false,
                    "internalType": "address",
                    "name": "to",
                    "type": "address"
                },
                {
                    "indexed": false,
                    "internalType": "uint256",
                    "name": "amount",
                    "type": "uint256"
                }
            ],
            "name": "PaymentReleased",
            "type": "event"
        },
        {
            "anonymous": false,
            "inputs": [
                {
                    "indexed": true,
                    "internalType": "address",
                    "name": "from",
                    "type": "address"
                },
                {
                    "indexed": true,
                    "internalType": "address",
                    "name": "to",
                    "type": "address"
                },
                {
                    "indexed": true,
                    "internalType": "uint256",
                    "name": "tokenId",
                    "type": "uint256"
                }
            ],
            "name": "Transfer",
            "type": "event"
        },
        {
            "inputs": [],
            "name": "MAX_SUPPLY",
            "outputs": [
                {
                    "internalType": "uint256",
                    "name": "",
                    "type": "uint256"
                }
            ],
            "stateMutability": "view",
            "type": "function"
        },
        {
            "inputs": [
                {
                    "internalType": "address",
                    "name": "to",
                    "type": "address"
                },
                {
                    "internalType": "uint256",
                    "name": "tokenId",
                    "type": "uint256"
                }
            ],
            "name": "approve",
            "outputs": [],
            "stateMutability": "nonpayable",
            "type": "function"
        },
        {
            "inputs": [
                {
                    "internalType": "address",
                    "name": "owner",
                    "type": "address"
                }
            ],
            "name": "balanceOf",
            "outputs": [
                {
                    "internalType": "uint256",
                    "name": "",
                    "type": "uint256"
                }
            ],
            "stateMutability": "view",
            "type": "function"
        },
        {
            "inputs": [],
            "name": "baseTokenURI",
            "outputs": [
                {
                    "internalType": "string",
                    "name": "",
                    "type": "string"
                }
            ],
            "stateMutability": "view",
            "type": "function"
        },
        {
            "inputs": [
                {
                    "internalType": "uint256",
                    "name": "tokenId",
                    "type": "uint256"
                }
            ],
            "name": "getApproved",
            "outputs": [
                {
                    "internalType": "address",
                    "name": "",
                    "type": "address"
                }
            ],
            "stateMutability": "view",
            "type": "function"
        },
        {
            "inputs": [
                {
                    "internalType": "uint256",
                    "name": "tokenId",
                    "type": "uint256"
                }
            ],
            "name": "getOwnershipData",
            "outputs": [
                {
                    "components": [
                        {
                            "internalType": "address",
                            "name": "addr",
                            "type": "address"
                        },
                        {
                            "internalType": "uint64",
                            "name": "startTimestamp",
                            "type": "uint64"
                        }
                    ],
                    "internalType": "struct ERC721A.TokenOwnership",
                    "name": "",
                    "type": "tuple"
                }
            ],
            "stateMutability": "view",
            "type": "function"
        },
        {
            "inputs": [
                {
                    "internalType": "uint256[]",
                    "name": "quantity",
                    "type": "uint256[]"
                },
                {
                    "internalType": "address[]",
                    "name": "recipient",
                    "type": "address[]"
                }
            ],
            "name": "gift",
            "outputs": [],
            "stateMutability": "nonpayable",
            "type": "function"
        },
        {
            "inputs": [
                {
                    "internalType": "address",
                    "name": "owner",
                    "type": "address"
                },
                {
                    "internalType": "address",
                    "name": "operator",
                    "type": "address"
                }
            ],
            "name": "isApprovedForAll",
            "outputs": [
                {
                    "internalType": "bool",
                    "name": "",
                    "type": "bool"
                }
            ],
            "stateMutability": "view",
            "type": "function"
        },
        {
            "inputs": [],
            "name": "maxMint",
            "outputs": [
                {
                    "internalType": "uint256",
                    "name": "",
                    "type": "uint256"
                }
            ],
            "stateMutability": "view",
            "type": "function"
        },
        {
            "inputs": [
                {
                    "internalType": "uint256",
                    "name": "_mintAmount",
                    "type": "uint256"
                }
            ],
            "name": "mint",
            "outputs": [],
            "stateMutability": "payable",
            "type": "function"
        },
        {
            "inputs": [
                {
                    "internalType": "uint256",
                    "name": "_mintAmount",
                    "type": "uint256"
                }
            ],
            "name": "mintPresale",
            "outputs": [],
            "stateMutability": "payable",
            "type": "function"
        },
        {
            "inputs": [],
            "name": "name",
            "outputs": [
                {
                    "internalType": "string",
                    "name": "",
                    "type": "string"
                }
            ],
            "stateMutability": "view",
            "type": "function"
        },
        {
            "inputs": [
                {
                    "internalType": "address",
                    "name": "owner",
                    "type": "address"
                }
            ],
            "name": "numberMinted",
            "outputs": [
                {
                    "internalType": "uint256",
                    "name": "",
                    "type": "uint256"
                }
            ],
            "stateMutability": "view",
            "type": "function"
        },
        {
            "inputs": [],
            "name": "owner",
            "outputs": [
                {
                    "internalType": "address",
                    "name": "",
                    "type": "address"
                }
            ],
            "stateMutability": "view",
            "type": "function"
        },
        {
            "inputs": [
                {
                    "internalType": "uint256",
                    "name": "tokenId",
                    "type": "uint256"
                }
            ],
            "name": "ownerOf",
            "outputs": [
                {
                    "internalType": "address",
                    "name": "",
                    "type": "address"
                }
            ],
            "stateMutability": "view",
            "type": "function"
        },
        {
            "inputs": [
                {
                    "internalType": "uint256",
                    "name": "index",
                    "type": "uint256"
                }
            ],
            "name": "payee",
            "outputs": [
                {
                    "internalType": "address",
                    "name": "",
                    "type": "address"
                }
            ],
            "stateMutability": "view",
            "type": "function"
        },
        {
            "inputs": [],
            "name": "presaleTime",
            "outputs": [
                {
                    "internalType": "uint256",
                    "name": "",
                    "type": "uint256"
                }
            ],
            "stateMutability": "view",
            "type": "function"
        },
        {
            "inputs": [],
            "name": "publicTime",
            "outputs": [
                {
                    "internalType": "uint256",
                    "name": "",
                    "type": "uint256"
                }
            ],
            "stateMutability": "view",
            "type": "function"
        },
        {
            "inputs": [
                {
                    "internalType": "address payable",
                    "name": "account",
                    "type": "address"
                }
            ],
            "name": "release",
            "outputs": [],
            "stateMutability": "nonpayable",
            "type": "function"
        },
        {
            "inputs": [
                {
                    "internalType": "contract IERC20",
                    "name": "token",
                    "type": "address"
                },
                {
                    "internalType": "address",
                    "name": "account",
                    "type": "address"
                }
            ],
            "name": "release",
            "outputs": [],
            "stateMutability": "nonpayable",
            "type": "function"
        },
        {
            "inputs": [
                {
                    "internalType": "contract IERC20",
                    "name": "token",
                    "type": "address"
                },
                {
                    "internalType": "address",
                    "name": "account",
                    "type": "address"
                }
            ],
            "name": "released",
            "outputs": [
                {
                    "internalType": "uint256",
                    "name": "",
                    "type": "uint256"
                }
            ],
            "stateMutability": "view",
            "type": "function"
        },
        {
            "inputs": [
                {
                    "internalType": "address",
                    "name": "account",
                    "type": "address"
                }
            ],
            "name": "released",
            "outputs": [
                {
                    "internalType": "uint256",
                    "name": "",
                    "type": "uint256"
                }
            ],
            "stateMutability": "view",
            "type": "function"
        },
        {
            "inputs": [],
            "name": "renounceOwnership",
            "outputs": [],
            "stateMutability": "nonpayable",
            "type": "function"
        },
        {
            "inputs": [
                {
                    "internalType": "address",
                    "name": "from",
                    "type": "address"
                },
                {
                    "internalType": "address",
                    "name": "to",
                    "type": "address"
                },
                {
                    "internalType": "uint256",
                    "name": "tokenId",
                    "type": "uint256"
                }
            ],
            "name": "safeTransferFrom",
            "outputs": [],
            "stateMutability": "nonpayable",
            "type": "function"
        },
        {
            "inputs": [
                {
                    "internalType": "address",
                    "name": "from",
                    "type": "address"
                },
                {
                    "internalType": "address",
                    "name": "to",
                    "type": "address"
                },
                {
                    "internalType": "uint256",
                    "name": "tokenId",
                    "type": "uint256"
                },
                {
                    "internalType": "bytes",
                    "name": "_data",
                    "type": "bytes"
                }
            ],
            "name": "safeTransferFrom",
            "outputs": [],
            "stateMutability": "nonpayable",
            "type": "function"
        },
        {
            "inputs": [],
            "name": "saleIsActive",
            "outputs": [
                {
                    "internalType": "bool",
                    "name": "",
                    "type": "bool"
                }
            ],
            "stateMutability": "view",
            "type": "function"
        },
        {
            "inputs": [
                {
                    "internalType": "address[]",
                    "name": "addresses",
                    "type": "address[]"
                },
                {
                    "internalType": "uint8",
                    "name": "numAllowedToMint",
                    "type": "uint8"
                }
            ],
            "name": "setAllowList",
            "outputs": [],
            "stateMutability": "nonpayable",
            "type": "function"
        },
        {
            "inputs": [
                {
                    "internalType": "address",
                    "name": "operator",
                    "type": "address"
                },
                {
                    "internalType": "bool",
                    "name": "approved",
                    "type": "bool"
                }
            ],
            "name": "setApprovalForAll",
            "outputs": [],
            "stateMutability": "nonpayable",
            "type": "function"
        },
        {
            "inputs": [
                {
                    "internalType": "string",
                    "name": "_newBaseURI",
                    "type": "string"
                }
            ],
            "name": "setBaseURI",
            "outputs": [],
            "stateMutability": "nonpayable",
            "type": "function"
        },
        {
            "inputs": [
                {
                    "internalType": "uint256",
                    "name": "_newPrice",
                    "type": "uint256"
                }
            ],
            "name": "setPrice",
            "outputs": [],
            "stateMutability": "nonpayable",
            "type": "function"
        },
        {
            "inputs": [
                {
                    "internalType": "bool",
                    "name": "newState",
                    "type": "bool"
                }
            ],
            "name": "setSaleState",
            "outputs": [],
            "stateMutability": "nonpayable",
            "type": "function"
        },
        {
            "inputs": [
                {
                    "internalType": "address",
                    "name": "account",
                    "type": "address"
                }
            ],
            "name": "shares",
            "outputs": [
                {
                    "internalType": "uint256",
                    "name": "",
                    "type": "uint256"
                }
            ],
            "stateMutability": "view",
            "type": "function"
        },
        {
            "inputs": [
                {
                    "internalType": "bytes4",
                    "name": "interfaceId",
                    "type": "bytes4"
                }
            ],
            "name": "supportsInterface",
            "outputs": [
                {
                    "internalType": "bool",
                    "name": "",
                    "type": "bool"
                }
            ],
            "stateMutability": "view",
            "type": "function"
        },
        {
            "inputs": [],
            "name": "symbol",
            "outputs": [
                {
                    "internalType": "string",
                    "name": "",
                    "type": "string"
                }
            ],
            "stateMutability": "view",
            "type": "function"
        },
        {
            "inputs": [
                {
                    "internalType": "uint256",
                    "name": "index",
                    "type": "uint256"
                }
            ],
            "name": "tokenByIndex",
            "outputs": [
                {
                    "internalType": "uint256",
                    "name": "",
                    "type": "uint256"
                }
            ],
            "stateMutability": "view",
            "type": "function"
        },
        {
            "inputs": [
                {
                    "internalType": "address",
                    "name": "owner",
                    "type": "address"
                },
                {
                    "internalType": "uint256",
                    "name": "index",
                    "type": "uint256"
                }
            ],
            "name": "tokenOfOwnerByIndex",
            "outputs": [
                {
                    "internalType": "uint256",
                    "name": "",
                    "type": "uint256"
                }
            ],
            "stateMutability": "view",
            "type": "function"
        },
        {
            "inputs": [
                {
                    "internalType": "uint256",
                    "name": "tokenId",
                    "type": "uint256"
                }
            ],
            "name": "tokenURI",
            "outputs": [
                {
                    "internalType": "string",
                    "name": "",
                    "type": "string"
                }
            ],
            "stateMutability": "view",
            "type": "function"
        },
        {
            "inputs": [
                {
                    "internalType": "contract IERC20",
                    "name": "token",
                    "type": "address"
                }
            ],
            "name": "totalReleased",
            "outputs": [
                {
                    "internalType": "uint256",
                    "name": "",
                    "type": "uint256"
                }
            ],
            "stateMutability": "view",
            "type": "function"
        },
        {
            "inputs": [],
            "name": "totalReleased",
            "outputs": [
                {
                    "internalType": "uint256",
                    "name": "",
                    "type": "uint256"
                }
            ],
            "stateMutability": "view",
            "type": "function"
        },
        {
            "inputs": [],
            "name": "totalShares",
            "outputs": [
                {
                    "internalType": "uint256",
                    "name": "",
                    "type": "uint256"
                }
            ],
            "stateMutability": "view",
            "type": "function"
        },
        {
            "inputs": [],
            "name": "totalSupply",
            "outputs": [
                {
                    "internalType": "uint256",
                    "name": "",
                    "type": "uint256"
                }
            ],
            "stateMutability": "view",
            "type": "function"
        },
        {
            "inputs": [
                {
                    "internalType": "address",
                    "name": "from",
                    "type": "address"
                },
                {
                    "internalType": "address",
                    "name": "to",
                    "type": "address"
                },
                {
                    "internalType": "uint256",
                    "name": "tokenId",
                    "type": "uint256"
                }
            ],
            "name": "transferFrom",
            "outputs": [],
            "stateMutability": "nonpayable",
            "type": "function"
        },
        {
            "inputs": [
                {
                    "internalType": "address",
                    "name": "newOwner",
                    "type": "address"
                }
            ],
            "name": "transferOwnership",
            "outputs": [],
            "stateMutability": "nonpayable",
            "type": "function"
        },
        {
            "inputs": [],
            "name": "withdraw",
            "outputs": [],
            "stateMutability": "payable",
            "type": "function"
        },
        {
            "stateMutability": "payable",
            "type": "receive"
        }
    ],
    "bytecode": "0x600080556010805460ff19169055601960125566f8b0a10e47000060135563623b602060145563623cbfb06015556101a06040527304de4ecbcd3e86179bb1a0769e036a115f33eeec608090815273b9116b9129926ec3852c6f6fa24f0371ec38fd0f60a05273e85bf2e09c89c4ae1914dad5bf4871c2cbe7262f60c05273bfcfbdc87780c11a78e995ac2f30b115c9015f3160e0527380bdbaeebd351ced1e249e791ee272c83adc1936610100527340d349e3da24019d01791e1b9a0f91f07151d7b4610120527334db6e12d588ab2de211cd9ef0a13491778449da6101405273043ec45a905544995c8dc27e8eb03dc2f3b1f1cb6101605273706e6345d7661790f06ffd9e7d295fb7d75542fb6101805262000122906017906009620006b0565b5060408051610120810182526018808252600860208301526007928201929092526015606082018190526002608083015260a0820152600960c08201819052600560e083015260036101008301526200017d9291906200071a565b503480156200018b57600080fd5b5060405162003f1838038062003f18833981016040819052620001ae91620008be565b60178054806020026020016040519081016040528092919081815260200182805480156200020657602002820191906000526020600020905b81546001600160a01b03168152600190910190602001808311620001e7575b505050505060188054806020026020016040519081016040528092919081815260200182805480156200025957602002820191906000526020600020905b81548152602001906001019080831162000244575b5050875188935087925062000277915060019060208501906200075d565b5080516200028d9060029060208401906200075d565b505050620002aa620002a4620003f760201b60201c565b620003fb565b80518251146200031c5760405162461bcd60e51b815260206004820152603260248201527f5061796d656e7453706c69747465723a2070617965657320616e6420736861726044820152710cae640d8cadccee8d040dad2e6dac2e8c6d60731b60648201526084015b60405180910390fd5b60008251116200036f5760405162461bcd60e51b815260206004820152601a60248201527f5061796d656e7453706c69747465723a206e6f20706179656573000000000000604482015260640162000313565b60005b8251811015620003db57620003c68382815181106200039557620003956200094f565b6020026020010151838381518110620003b257620003b26200094f565b60200260200101516200044d60201b60201c565b80620003d2816200097b565b91505062000372565b50506001600f5550620003ee816200063b565b505050620009f1565b3390565b600780546001600160a01b038381166001600160a01b0319831681179093556040519116919082907f8be0079c531659141344cd1fd0a4f28419497f9722a3daafe3b4186f6b6457e090600090a35050565b6001600160a01b038216620004ba5760405162461bcd60e51b815260206004820152602c60248201527f5061796d656e7453706c69747465723a206163636f756e74206973207468652060448201526b7a65726f206164647265737360a01b606482015260840162000313565b600081116200050c5760405162461bcd60e51b815260206004820152601d60248201527f5061796d656e7453706c69747465723a20736861726573206172652030000000604482015260640162000313565b6001600160a01b0382166000908152600a602052604090205415620005885760405162461bcd60e51b815260206004820152602b60248201527f5061796d656e7453706c69747465723a206163636f756e7420616c726561647960448201526a206861732073686172657360a81b606482015260840162000313565b600c8054600181019091557fdf6966c971051c3d54ec59162606531493a51404a002842f56009d7e5cf4a8c70180546001600160a01b0319166001600160a01b0384169081179091556000908152600a60205260409020819055600854620005f290829062000999565b600855604080516001600160a01b0384168152602081018390527f40c340f65e17194d14ddddb073d3c9f888e3cb52b5aae0c6c7706b4fbc905fac910160405180910390a15050565b6007546001600160a01b03163314620006975760405162461bcd60e51b815260206004820181905260248201527f4f776e61626c653a2063616c6c6572206973206e6f7420746865206f776e6572604482015260640162000313565b8051620006ac9060119060208401906200075d565b5050565b82805482825590600052602060002090810192821562000708579160200282015b828111156200070857825182546001600160a01b0319166001600160a01b03909116178255602090920191600190910190620006d1565b5062000716929150620007da565b5090565b82805482825590600052602060002090810192821562000708579160200282015b8281111562000708578251829060ff169055916020019190600101906200073b565b8280546200076b90620009b4565b90600052602060002090601f0160209004810192826200078f576000855562000708565b82601f10620007aa57805160ff191683800117855562000708565b8280016001018555821562000708579182015b8281111562000708578251825591602001919060010190620007bd565b5b80821115620007165760008155600101620007db565b634e487b7160e01b600052604160045260246000fd5b600082601f8301126200081957600080fd5b81516001600160401b0380821115620008365762000836620007f1565b604051601f8301601f19908116603f01168101908282118183101715620008615762000861620007f1565b816040528381526020925086838588010111156200087e57600080fd5b600091505b83821015620008a2578582018301518183018401529082019062000883565b83821115620008b45760008385830101525b9695505050505050565b600080600060608486031215620008d457600080fd5b83516001600160401b0380821115620008ec57600080fd5b620008fa8783880162000807565b945060208601519150808211156200091157600080fd5b6200091f8783880162000807565b935060408601519150808211156200093657600080fd5b50620009458682870162000807565b9150509250925092565b634e487b7160e01b600052603260045260246000fd5b634e487b7160e01b600052601160045260246000fd5b600060001982141562000992576200099262000965565b5060010190565b60008219821115620009af57620009af62000965565b500190565b600181811c90821680620009c957607f821691505b60208210811415620009eb57634e487b7160e01b600052602260045260246000fd5b50919050565b6135178062000a016000396000f3fe6080604052600436106102eb5760003560e01c80638b83209b11610184578063c6e62e0b116100d6578063dc33e6811161008a578063eb8d244411610064578063eb8d2444146108c2578063f2fde38b146108dc578063f759867a146108fc57600080fd5b8063dc33e68114610844578063e33b7de314610864578063e985e9c51461087957600080fd5b8063ce7c2ac2116100bb578063ce7c2ac2146107c3578063d547cfb7146107f9578063d79779b21461080e57600080fd5b8063c6e62e0b1461078d578063c87b56dd146107a357600080fd5b806396ea3a4711610138578063a22cb46511610112578063a22cb4651461072d578063b88d4fde1461074d578063c4e370951461076d57600080fd5b806396ea3a47146106c45780639852595c146106e4578063a0712d681461071a57600080fd5b806391b7f5ed1161016957806391b7f5ed146106415780639231ab2a1461066157806395d89b41146106af57600080fd5b80638b83209b146106035780638da5cb5b1461062357600080fd5b80633ccfd60b1161023d57806355f804b3116101f1578063715018a6116101cb578063715018a6146105b85780637501f741146105cd5780638295784d146105e357600080fd5b806355f804b3146105585780636352211e1461057857806370a082311461059857600080fd5b806342842e0e1161022257806342842e0e146104f857806348b75044146105185780634f6ccce71461053857600080fd5b80633ccfd60b146104aa578063406072a9146104b257600080fd5b8063191655871161029f5780632f745c59116102795780632f745c591461045f57806332cb6b0c1461047f5780633a98ef391461049557600080fd5b806319165587146104095780631bdc608e1461042957806323b872dd1461043f57600080fd5b8063081812fc116102d0578063081812fc14610390578063095ea7b3146103c857806318160ddd146103ea57600080fd5b806301ffc9a71461033957806306fdde031461036e57600080fd5b36610334577f6ef95f06320e7a25a04a175ca677b7052bdd97131872c2192525a629f51be77033604080516001600160a01b0390921682523460208301520160405180910390a1005b600080fd5b34801561034557600080fd5b50610359610354366004612e84565b61090f565b60405190151581526020015b60405180910390f35b34801561037a57600080fd5b5061038361097c565b6040516103659190612ef9565b34801561039c57600080fd5b506103b06103ab366004612f0c565b610a0e565b6040516001600160a01b039091168152602001610365565b3480156103d457600080fd5b506103e86103e3366004612f3a565b610aae565b005b3480156103f657600080fd5b506000545b604051908152602001610365565b34801561041557600080fd5b506103e8610424366004612f66565b610bc6565b34801561043557600080fd5b506103fb60155481565b34801561044b57600080fd5b506103e861045a366004612f83565b610d77565b34801561046b57600080fd5b506103fb61047a366004612f3a565b610d82565b34801561048b57600080fd5b506103fb610ad981565b3480156104a157600080fd5b506008546103fb565b6103e8610eff565b3480156104be57600080fd5b506103fb6104cd366004612fc4565b6001600160a01b039182166000908152600e6020908152604080832093909416825291909152205490565b34801561050457600080fd5b506103e8610513366004612f83565b610fb1565b34801561052457600080fd5b506103e8610533366004612fc4565b610fcc565b34801561054457600080fd5b506103fb610553366004612f0c565b611228565b34801561056457600080fd5b506103e8610573366004613089565b61128a565b34801561058457600080fd5b506103b0610593366004612f0c565b6112fb565b3480156105a457600080fd5b506103fb6105b3366004612f66565b61130d565b3480156105c457600080fd5b506103e86113b0565b3480156105d957600080fd5b506103fb60125481565b3480156105ef57600080fd5b506103e86105fe36600461311e565b611416565b34801561060f57600080fd5b506103b061061e366004612f0c565b6114dc565b34801561062f57600080fd5b506007546001600160a01b03166103b0565b34801561064d57600080fd5b506103e861065c366004612f0c565b61150c565b34801561066d57600080fd5b5061068161067c366004612f0c565b61156b565b6040805182516001600160a01b0316815260209283015167ffffffffffffffff169281019290925201610365565b3480156106bb57600080fd5b50610383611588565b3480156106d057600080fd5b506103e86106df36600461317b565b611597565b3480156106f057600080fd5b506103fb6106ff366004612f66565b6001600160a01b03166000908152600b602052604090205490565b6103e8610728366004612f0c565b6116b4565b34801561073957600080fd5b506103e86107483660046131f5565b6118bb565b34801561075957600080fd5b506103e8610768366004613223565b611980565b34801561077957600080fd5b506103e86107883660046132a3565b6119ff565b34801561079957600080fd5b506103fb60145481565b3480156107af57600080fd5b506103836107be366004612f0c565b611a6c565b3480156107cf57600080fd5b506103fb6107de366004612f66565b6001600160a01b03166000908152600a602052604090205490565b34801561080557600080fd5b50610383611b2b565b34801561081a57600080fd5b506103fb610829366004612f66565b6001600160a01b03166000908152600d602052604090205490565b34801561085057600080fd5b506103fb61085f366004612f66565b611bb9565b34801561087057600080fd5b506009546103fb565b34801561088557600080fd5b50610359610894366004612fc4565b6001600160a01b03918216600090815260066020908152604080832093909416825291909152205460ff1690565b3480156108ce57600080fd5b506010546103599060ff1681565b3480156108e857600080fd5b506103e86108f7366004612f66565b611bc4565b6103e861090a366004612f0c565b611ca3565b60006001600160e01b031982166380ac58cd60e01b148061094057506001600160e01b03198216635b5e139f60e01b145b8061095b57506001600160e01b0319821663780e9d6360e01b145b8061097657506301ffc9a760e01b6001600160e01b03198316145b92915050565b60606001805461098b906132c0565b80601f01602080910402602001604051908101604052809291908181526020018280546109b7906132c0565b8015610a045780601f106109d957610100808354040283529160200191610a04565b820191906000526020600020905b8154815290600101906020018083116109e757829003601f168201915b5050505050905090565b6000610a1b826000541190565b610a925760405162461bcd60e51b815260206004820152602d60248201527f455243373231413a20617070726f76656420717565727920666f72206e6f6e6560448201527f78697374656e7420746f6b656e0000000000000000000000000000000000000060648201526084015b60405180910390fd5b506000908152600560205260409020546001600160a01b031690565b6000610ab9826112fb565b9050806001600160a01b0316836001600160a01b03161415610b285760405162461bcd60e51b815260206004820152602260248201527f455243373231413a20617070726f76616c20746f2063757272656e74206f776e60448201526132b960f11b6064820152608401610a89565b336001600160a01b0382161480610b445750610b448133610894565b610bb65760405162461bcd60e51b815260206004820152603960248201527f455243373231413a20617070726f76652063616c6c6572206973206e6f74206f60448201527f776e6572206e6f7220617070726f76656420666f7220616c6c000000000000006064820152608401610a89565b610bc1838383611eb1565b505050565b6001600160a01b0381166000908152600a6020526040902054610c3a5760405162461bcd60e51b815260206004820152602660248201527f5061796d656e7453706c69747465723a206163636f756e7420686173206e6f2060448201526573686172657360d01b6064820152608401610a89565b6000610c4560095490565b610c4f9047613311565b90506000610c7c8383610c77866001600160a01b03166000908152600b602052604090205490565b611f1a565b905080610cdf5760405162461bcd60e51b815260206004820152602b60248201527f5061796d656e7453706c69747465723a206163636f756e74206973206e6f742060448201526a191d59481c185e5b595b9d60aa1b6064820152608401610a89565b6001600160a01b0383166000908152600b602052604081208054839290610d07908490613311565b925050819055508060096000828254610d209190613311565b90915550610d3090508382611f60565b604080516001600160a01b0385168152602081018390527fdf20fd1e76bc69d672e4814fafb2c449bba3a5369d8359adf9e05e6fde87b056910160405180910390a1505050565b610bc1838383612079565b6000610d8d8361130d565b8210610de65760405162461bcd60e51b815260206004820152602260248201527f455243373231413a206f776e657220696e646578206f7574206f6620626f756e604482015261647360f01b6064820152608401610a89565b600080549080805b83811015610e90576000818152600360209081526040918290208251808401909352546001600160a01b038116808452600160a01b90910467ffffffffffffffff169183019190915215610e4157805192505b876001600160a01b0316836001600160a01b03161415610e7d5786841415610e6f5750935061097692505050565b83610e7981613329565b9450505b5080610e8881613329565b915050610dee565b5060405162461bcd60e51b815260206004820152602e60248201527f455243373231413a20756e61626c6520746f2067657420746f6b656e206f662060448201527f6f776e657220627920696e6465780000000000000000000000000000000000006064820152608401610a89565b6007546001600160a01b03163314610f595760405162461bcd60e51b815260206004820181905260248201527f4f776e61626c653a2063616c6c6572206973206e6f7420746865206f776e65726044820152606401610a89565b604051600090339047908381818185875af1925050503d8060008114610f9b576040519150601f19603f3d011682016040523d82523d6000602084013e610fa0565b606091505b5050905080610fae57600080fd5b50565b610bc183838360405180602001604052806000815250611980565b6001600160a01b0381166000908152600a60205260409020546110405760405162461bcd60e51b815260206004820152602660248201527f5061796d656e7453706c69747465723a206163636f756e7420686173206e6f2060448201526573686172657360d01b6064820152608401610a89565b6001600160a01b0382166000908152600d60205260408120546040516370a0823160e01b81523060048201526001600160a01b038516906370a0823190602401602060405180830381865afa15801561109d573d6000803e3d6000fd5b505050506040513d601f19601f820116820180604052508101906110c19190613344565b6110cb9190613311565b905060006111048383610c7787876001600160a01b039182166000908152600e6020908152604080832093909416825291909152205490565b9050806111675760405162461bcd60e51b815260206004820152602b60248201527f5061796d656e7453706c69747465723a206163636f756e74206973206e6f742060448201526a191d59481c185e5b595b9d60aa1b6064820152608401610a89565b6001600160a01b038085166000908152600e602090815260408083209387168352929052908120805483929061119e908490613311565b90915550506001600160a01b0384166000908152600d6020526040812080548392906111cb908490613311565b909155506111dc90508484836123fa565b604080516001600160a01b038581168252602082018490528616917f3be5b7a71e84ed12875d241991c70855ac5817d847039e17a9d895c1ceb0f18a910160405180910390a250505050565b6000805482106112865760405162461bcd60e51b815260206004820152602360248201527f455243373231413a20676c6f62616c20696e646578206f7574206f6620626f756044820152626e647360e81b6064820152608401610a89565b5090565b6007546001600160a01b031633146112e45760405162461bcd60e51b815260206004820181905260248201527f4f776e61626c653a2063616c6c6572206973206e6f7420746865206f776e65726044820152606401610a89565b80516112f7906011906020840190612dde565b5050565b600061130682612461565b5192915050565b60006001600160a01b03821661138b5760405162461bcd60e51b815260206004820152602b60248201527f455243373231413a2062616c616e636520717565727920666f7220746865207a60448201527f65726f20616464726573730000000000000000000000000000000000000000006064820152608401610a89565b506001600160a01b03166000908152600460205260409020546001600160801b031690565b6007546001600160a01b0316331461140a5760405162461bcd60e51b815260206004820181905260248201527f4f776e61626c653a2063616c6c6572206973206e6f7420746865206f776e65726044820152606401610a89565b6114146000612554565b565b6007546001600160a01b031633146114705760405162461bcd60e51b815260206004820181905260248201527f4f776e61626c653a2063616c6c6572206973206e6f7420746865206f776e65726044820152606401610a89565b60005b828110156114d6578160ff16601660008686858181106114955761149561335d565b90506020020160208101906114aa9190612f66565b6001600160a01b03168152602081019190915260400160002055806114ce81613329565b915050611473565b50505050565b6000600c82815481106114f1576114f161335d565b6000918252602090912001546001600160a01b031692915050565b6007546001600160a01b031633146115665760405162461bcd60e51b815260206004820181905260248201527f4f776e61626c653a2063616c6c6572206973206e6f7420746865206f776e65726044820152606401610a89565b601355565b604080518082019091526000808252602082015261097682612461565b60606002805461098b906132c0565b6007546001600160a01b031633146115f15760405162461bcd60e51b815260206004820181905260248201527f4f776e61626c653a2063616c6c6572206973206e6f7420746865206f776e65726044820152606401610a89565b82811461164a5760405162461bcd60e51b815260206004820152602160248201527f50726f76696465207175616e74697469657320616e6420726563697069656e746044820152607360f81b6064820152608401610a89565b60005b818110156116ad5761169d83838381811061166a5761166a61335d565b905060200201602081019061167f9190612f66565b8686848181106116915761169161335d565b905060200201356125b3565b6116a681613329565b905061164d565b5050505050565b3233146117035760405162461bcd60e51b815260206004820152601e60248201527f5468652063616c6c657220697320616e6f7468657220636f6e747261637400006044820152606401610a89565b60105460ff166117555760405162461bcd60e51b815260206004820152601960248201527f5075626c69632073616c65206973206e6f7420616374697665000000000000006044820152606401610a89565b60155442101561176457600080fd5b6012548161177133611bb9565b61177b9190613311565b11156117c95760405162461bcd60e51b815260206004820152601a60248201527f546f6f206d616e792c20706c65617365206d696e74206c6573730000000000006044820152606401610a89565b610ad9816117d660005490565b6117e09190613311565b11156118545760405162461bcd60e51b815260206004820152602660248201527f507572636861736520776f756c6420657863656564206d617820746f6b656e2060448201527f737570706c7900000000000000000000000000000000000000000000000000006064820152608401610a89565b806013546118629190613373565b3410156118b15760405162461bcd60e51b815260206004820152601f60248201527f45746865722076616c75652073656e74206973206e6f7420636f7272656374006044820152606401610a89565b610fae33826125b3565b6001600160a01b0382163314156119145760405162461bcd60e51b815260206004820152601a60248201527f455243373231413a20617070726f766520746f2063616c6c65720000000000006044820152606401610a89565b3360008181526006602090815260408083206001600160a01b03871680855290835292819020805460ff191686151590811790915590519081529192917f17307eab39ab6107e8899845ad3d59bd9653f200f220920489ca2b5937696c31910160405180910390a35050565b61198b848484612079565b611997848484846125cd565b6114d65760405162461bcd60e51b815260206004820152603360248201527f455243373231413a207472616e7366657220746f206e6f6e204552433732315260448201527232b1b2b4bb32b91034b6b83632b6b2b73a32b960691b6064820152608401610a89565b6007546001600160a01b03163314611a595760405162461bcd60e51b815260206004820181905260248201527f4f776e61626c653a2063616c6c6572206973206e6f7420746865206f776e65726044820152606401610a89565b6010805460ff1916911515919091179055565b6060611a79826000541190565b611acf5760405162461bcd60e51b815260206004820152602160248201527f4552433732314d657461646174613a204e6f6e6578697374656e7420746f6b656044820152603760f91b6064820152608401610a89565b6000611ad9612717565b90506000815111611af95760405180602001604052806000815250611b24565b80611b0384612726565b604051602001611b14929190613392565b6040516020818303038152906040525b9392505050565b60118054611b38906132c0565b80601f0160208091040260200160405190810160405280929190818152602001828054611b64906132c0565b8015611bb15780601f10611b8657610100808354040283529160200191611bb1565b820191906000526020600020905b815481529060010190602001808311611b9457829003601f168201915b505050505081565b60006109768261283c565b6007546001600160a01b03163314611c1e5760405162461bcd60e51b815260206004820181905260248201527f4f776e61626c653a2063616c6c6572206973206e6f7420746865206f776e65726044820152606401610a89565b6001600160a01b038116611c9a5760405162461bcd60e51b815260206004820152602660248201527f4f776e61626c653a206e6577206f776e657220697320746865207a65726f206160448201527f64647265737300000000000000000000000000000000000000000000000000006064820152608401610a89565b610fae81612554565b323314611cf25760405162461bcd60e51b815260206004820152601e60248201527f5468652063616c6c657220697320616e6f7468657220636f6e747261637400006044820152606401610a89565b3360009081526016602052604090205460105460ff1615611d7b5760405162461bcd60e51b815260206004820152602560248201527f5075626c69632053616c65206973206163746976652c2077726f6e672066756e60448201527f6374696f6e0000000000000000000000000000000000000000000000000000006064820152608401610a89565b601454421015611d8a57600080fd5b60008111611dda5760405162461bcd60e51b815260206004820152601f60248201527f6e6f7420656c696769626c6520666f7220616c6c6f776c697374206d696e74006044820152606401610a89565b80821115611e2a5760405162461bcd60e51b815260206004820152601060248201527f547279206d696e74696e67206c657373000000000000000000000000000000006044820152606401610a89565b81601354611e389190613373565b341015611e875760405162461bcd60e51b815260206004820152601f60248201527f45746865722076616c75652073656e74206973206e6f7420636f7272656374006044820152606401610a89565b611e9182826133c1565b336000818152601660205260408120929092559091506112f790836125b3565b600082815260056020526040808220805473ffffffffffffffffffffffffffffffffffffffff19166001600160a01b0387811691821790925591518593918516917f8c5be1e5ebec7d5bd14f71427d1e84f3dd0314c0f7b2291e5b200ac8c7c3b92591a4505050565b6008546001600160a01b0384166000908152600a602052604081205490918391611f449086613373565b611f4e91906133ee565b611f5891906133c1565b949350505050565b80471015611fb05760405162461bcd60e51b815260206004820152601d60248201527f416464726573733a20696e73756666696369656e742062616c616e63650000006044820152606401610a89565b6000826001600160a01b03168260405160006040518083038185875af1925050503d8060008114611ffd576040519150601f19603f3d011682016040523d82523d6000602084013e612002565b606091505b5050905080610bc15760405162461bcd60e51b815260206004820152603a60248201527f416464726573733a20756e61626c6520746f2073656e642076616c75652c207260448201527f6563697069656e74206d617920686176652072657665727465640000000000006064820152608401610a89565b600061208482612461565b80519091506000906001600160a01b0316336001600160a01b031614806120bb5750336120b084610a0e565b6001600160a01b0316145b806120cd575081516120cd9033610894565b9050806121425760405162461bcd60e51b815260206004820152603260248201527f455243373231413a207472616e736665722063616c6c6572206973206e6f742060448201527f6f776e6572206e6f7220617070726f76656400000000000000000000000000006064820152608401610a89565b846001600160a01b031682600001516001600160a01b0316146121cd5760405162461bcd60e51b815260206004820152602660248201527f455243373231413a207472616e736665722066726f6d20696e636f727265637460448201527f206f776e657200000000000000000000000000000000000000000000000000006064820152608401610a89565b6001600160a01b0384166122495760405162461bcd60e51b815260206004820152602560248201527f455243373231413a207472616e7366657220746f20746865207a65726f20616460448201527f64726573730000000000000000000000000000000000000000000000000000006064820152608401610a89565b6122596000848460000151611eb1565b6001600160a01b03858116600090815260046020908152604080832080546fffffffffffffffffffffffffffffffff198082166001600160801b03928316600019018316179092558986168086528386208054938416938316600190810190931693909317909255825180840184529182524267ffffffffffffffff9081168386019081528a8752600390955292852091518254945196166001600160e01b031990941693909317600160a01b9590921694909402179092559061231e908590613311565b6000818152600360205260409020549091506001600160a01b03166123b057612348816000541190565b156123b05760408051808201825284516001600160a01b03908116825260208087015167ffffffffffffffff9081168285019081526000878152600390935294909120925183549451909116600160a01b026001600160e01b03199094169116179190911790555b83856001600160a01b0316876001600160a01b03167fddf252ad1be2c89b69c2b068fc378daa952ba7f163c4a11628f55a4df523b3ef60405160405180910390a45b505050505050565b604080516001600160a01b038416602482015260448082018490528251808303909101815260649091019091526020810180517bffffffffffffffffffffffffffffffffffffffffffffffffffffffff1663a9059cbb60e01b179052610bc19084906128e6565b6040805180820190915260008082526020820152612480826000541190565b6124f25760405162461bcd60e51b815260206004820152602a60248201527f455243373231413a206f776e657220717565727920666f72206e6f6e6578697360448201527f74656e7420746f6b656e000000000000000000000000000000000000000000006064820152608401610a89565b815b6000818152600360209081526040918290208251808401909352546001600160a01b038116808452600160a01b90910467ffffffffffffffff169183019190915215612541579392505050565b508061254c81613402565b9150506124f4565b600780546001600160a01b0383811673ffffffffffffffffffffffffffffffffffffffff19831681179093556040519116919082907f8be0079c531659141344cd1fd0a4f28419497f9722a3daafe3b4186f6b6457e090600090a35050565b6112f78282604051806020016040528060008152506129cb565b60006001600160a01b0384163b1561270c57604051630a85bd0160e11b81526001600160a01b0385169063150b7a0290612611903390899088908890600401613419565b6020604051808303816000875af192505050801561264c575060408051601f3d908101601f1916820190925261264991810190613455565b60015b6126f2573d80801561267a576040519150601f19603f3d011682016040523d82523d6000602084013e61267f565b606091505b5080516126ea5760405162461bcd60e51b815260206004820152603360248201527f455243373231413a207472616e7366657220746f206e6f6e204552433732315260448201527232b1b2b4bb32b91034b6b83632b6b2b73a32b960691b6064820152608401610a89565b805181602001fd5b6001600160e01b031916630a85bd0160e11b149050611f58565b506001949350505050565b60606011805461098b906132c0565b60608161274a5750506040805180820190915260018152600360fc1b602082015290565b8160005b8115612774578061275e81613329565b915061276d9050600a836133ee565b915061274e565b60008167ffffffffffffffff81111561278f5761278f612ffd565b6040519080825280601f01601f1916602001820160405280156127b9576020820181803683370190505b5090505b8415611f58576127ce6001836133c1565b91506127db600a86613472565b6127e6906030613311565b60f81b8183815181106127fb576127fb61335d565b60200101907effffffffffffffffffffffffffffffffffffffffffffffffffffffffffffff1916908160001a905350612835600a866133ee565b94506127bd565b60006001600160a01b0382166128ba5760405162461bcd60e51b815260206004820152603160248201527f455243373231413a206e756d626572206d696e74656420717565727920666f7260448201527f20746865207a65726f20616464726573730000000000000000000000000000006064820152608401610a89565b506001600160a01b0316600090815260046020526040902054600160801b90046001600160801b031690565b600061293b826040518060400160405280602081526020017f5361666545524332303a206c6f772d6c6576656c2063616c6c206661696c6564815250856001600160a01b0316612cd39092919063ffffffff16565b805190915015610bc157808060200190518101906129599190613486565b610bc15760405162461bcd60e51b815260206004820152602a60248201527f5361666545524332303a204552433230206f7065726174696f6e20646964206e60448201527f6f742073756363656564000000000000000000000000000000000000000000006064820152608401610a89565b6000546001600160a01b038416612a2e5760405162461bcd60e51b815260206004820152602160248201527f455243373231413a206d696e7420746f20746865207a65726f206164647265736044820152607360f81b6064820152608401610a89565b612a39816000541190565b15612a865760405162461bcd60e51b815260206004820152601d60248201527f455243373231413a20746f6b656e20616c7265616479206d696e7465640000006044820152606401610a89565b60008311612ae25760405162461bcd60e51b815260206004820152602360248201527f455243373231413a207175616e74697479206d7573742062652067726561746560448201526207220360ec1b6064820152608401610a89565b6001600160a01b0384166000908152600460209081526040918290208251808401845290546001600160801b038082168352600160801b9091041691810191909152815180830190925280519091908190612b3e9087906134a3565b6001600160801b03168152602001858360200151612b5c91906134a3565b6001600160801b039081169091526001600160a01b0380881660008181526004602090815260408083208751978301518716600160801b0297909616969096179094558451808601865291825267ffffffffffffffff4281168386019081528883526003909552948120915182549451909516600160a01b026001600160e01b031990941694909216939093179190911790915582905b85811015612cc85760405182906001600160a01b038916906000907fddf252ad1be2c89b69c2b068fc378daa952ba7f163c4a11628f55a4df523b3ef908290a4612c4060008884886125cd565b612ca85760405162461bcd60e51b815260206004820152603360248201527f455243373231413a207472616e7366657220746f206e6f6e204552433732315260448201527232b1b2b4bb32b91034b6b83632b6b2b73a32b960691b6064820152608401610a89565b81612cb281613329565b9250508080612cc090613329565b915050612bf3565b5060008190556123f2565b6060611f58848460008585843b612d2c5760405162461bcd60e51b815260206004820152601d60248201527f416464726573733a2063616c6c20746f206e6f6e2d636f6e74726163740000006044820152606401610a89565b600080866001600160a01b03168587604051612d4891906134c5565b60006040518083038185875af1925050503d8060008114612d85576040519150601f19603f3d011682016040523d82523d6000602084013e612d8a565b606091505b5091509150612d9a828286612da5565b979650505050505050565b60608315612db4575081611b24565b825115612dc45782518084602001fd5b8160405162461bcd60e51b8152600401610a899190612ef9565b828054612dea906132c0565b90600052602060002090601f016020900481019282612e0c5760008555612e52565b82601f10612e2557805160ff1916838001178555612e52565b82800160010185558215612e52579182015b82811115612e52578251825591602001919060010190612e37565b506112869291505b808211156112865760008155600101612e5a565b6001600160e01b031981168114610fae57600080fd5b600060208284031215612e9657600080fd5b8135611b2481612e6e565b60005b83811015612ebc578181015183820152602001612ea4565b838111156114d65750506000910152565b60008151808452612ee5816020860160208601612ea1565b601f01601f19169290920160200192915050565b602081526000611b246020830184612ecd565b600060208284031215612f1e57600080fd5b5035919050565b6001600160a01b0381168114610fae57600080fd5b60008060408385031215612f4d57600080fd5b8235612f5881612f25565b946020939093013593505050565b600060208284031215612f7857600080fd5b8135611b2481612f25565b600080600060608486031215612f9857600080fd5b8335612fa381612f25565b92506020840135612fb381612f25565b929592945050506040919091013590565b60008060408385031215612fd757600080fd5b8235612fe281612f25565b91506020830135612ff281612f25565b809150509250929050565b634e487b7160e01b600052604160045260246000fd5b600067ffffffffffffffff8084111561302e5761302e612ffd565b604051601f8501601f19908116603f0116810190828211818310171561305657613056612ffd565b8160405280935085815286868601111561306f57600080fd5b858560208301376000602087830101525050509392505050565b60006020828403121561309b57600080fd5b813567ffffffffffffffff8111156130b257600080fd5b8201601f810184136130c357600080fd5b611f5884823560208401613013565b60008083601f8401126130e457600080fd5b50813567ffffffffffffffff8111156130fc57600080fd5b6020830191508360208260051b850101111561311757600080fd5b9250929050565b60008060006040848603121561313357600080fd5b833567ffffffffffffffff81111561314a57600080fd5b613156868287016130d2565b909450925050602084013560ff8116811461317057600080fd5b809150509250925092565b6000806000806040858703121561319157600080fd5b843567ffffffffffffffff808211156131a957600080fd5b6131b5888389016130d2565b909650945060208701359150808211156131ce57600080fd5b506131db878288016130d2565b95989497509550505050565b8015158114610fae57600080fd5b6000806040838503121561320857600080fd5b823561321381612f25565b91506020830135612ff2816131e7565b6000806000806080858703121561323957600080fd5b843561324481612f25565b9350602085013561325481612f25565b925060408501359150606085013567ffffffffffffffff81111561327757600080fd5b8501601f8101871361328857600080fd5b61329787823560208401613013565b91505092959194509250565b6000602082840312156132b557600080fd5b8135611b24816131e7565b600181811c908216806132d457607f821691505b602082108114156132f557634e487b7160e01b600052602260045260246000fd5b50919050565b634e487b7160e01b600052601160045260246000fd5b60008219821115613324576133246132fb565b500190565b600060001982141561333d5761333d6132fb565b5060010190565b60006020828403121561335657600080fd5b5051919050565b634e487b7160e01b600052603260045260246000fd5b600081600019048311821515161561338d5761338d6132fb565b500290565b600083516133a4818460208801612ea1565b8351908301906133b8818360208801612ea1565b01949350505050565b6000828210156133d3576133d36132fb565b500390565b634e487b7160e01b600052601260045260246000fd5b6000826133fd576133fd6133d8565b500490565b600081613411576134116132fb565b506000190190565b60006001600160a01b0380871683528086166020840152508360408301526080606083015261344b6080830184612ecd565b9695505050505050565b60006020828403121561346757600080fd5b8151611b2481612e6e565b600082613481576134816133d8565b500690565b60006020828403121561349857600080fd5b8151611b24816131e7565b60006001600160801b038083168185168083038211156133b8576133b86132fb565b600082516134d7818460208701612ea1565b919091019291505056fea264697066735822122066bef1ff3a6b8bab1e6f723ad4ff3fba30fa00820dfa138a171361bd92ae581964736f6c634300080b0033",
    "linkReferences": {},
    "deployedLinkReferences": {}
}