{
    "_format": "hh-sol-artifact-1",
    "contractName": "ChftyOfficialTest",
    "sourceName": "contracts/Chfty.sol",
    "abi": [
        {
            "inputs": [
                {
                    "internalType": "string",
                    "name": "_name",
                    "type": "string"
                },
                {
                    "internalType": "string",
                    "name": "_symbol",
                    "type": "string"
                },
                {
                    "internalType": "string",
                    "name": "_initBaseURI",
                    "type": "string"
                }
            ],
            "stateMutability": "nonpayable",
            "type": "constructor"
        },
        {
            "anonymous": false,
            "inputs": [
                {
                    "indexed": true,
                    "internalType": "address",
                    "name": "owner",
                    "type": "address"
                },
                {
                    "indexed": true,
                    "internalType": "address",
                    "name": "approved",
                    "type": "address"
                },
                {
                    "indexed": true,
                    "internalType": "uint256",
                    "name": "tokenId",
                    "type": "uint256"
                }
            ],
            "name": "Approval",
            "type": "event"
        },
        {
            "anonymous": false,
            "inputs": [
                {
                    "indexed": true,
                    "internalType": "address",
                    "name": "owner",
                    "type": "address"
                },
                {
                    "indexed": true,
                    "internalType": "address",
                    "name": "operator",
                    "type": "address"
                },
                {
                    "indexed": false,
                    "internalType": "bool",
                    "name": "approved",
                    "type": "bool"
                }
            ],
            "name": "ApprovalForAll",
            "type": "event"
        },
        {
            "anonymous": false,
            "inputs": [
                {
                    "indexed": true,
                    "internalType": "contract IERC20",
                    "name": "token",
                    "type": "address"
                },
                {
                    "indexed": false,
                    "internalType": "address",
                    "name": "to",
                    "type": "address"
                },
                {
                    "indexed": false,
                    "internalType": "uint256",
                    "name": "amount",
                    "type": "uint256"
                }
            ],
            "name": "ERC20PaymentReleased",
            "type": "event"
        },
        {
            "anonymous": false,
            "inputs": [
                {
                    "indexed": true,
                    "internalType": "address",
                    "name": "previousOwner",
                    "type": "address"
                },
                {
                    "indexed": true,
                    "internalType": "address",
                    "name": "newOwner",
                    "type": "address"
                }
            ],
            "name": "OwnershipTransferred",
            "type": "event"
        },
        {
            "anonymous": false,
            "inputs": [
                {
                    "indexed": false,
                    "internalType": "address",
                    "name": "account",
                    "type": "address"
                },
                {
                    "indexed": false,
                    "internalType": "uint256",
                    "name": "shares",
                    "type": "uint256"
                }
            ],
            "name": "PayeeAdded",
            "type": "event"
        },
        {
            "anonymous": false,
            "inputs": [
                {
                    "indexed": false,
                    "internalType": "address",
                    "name": "from",
                    "type": "address"
                },
                {
                    "indexed": false,
                    "internalType": "uint256",
                    "name": "amount",
                    "type": "uint256"
                }
            ],
            "name": "PaymentReceived",
            "type": "event"
        },
        {
            "anonymous": false,
            "inputs": [
                {
                    "indexed": false,
                    "internalType": "address",
                    "name": "to",
                    "type": "address"
                },
                {
                    "indexed": false,
                    "internalType": "uint256",
                    "name": "amount",
                    "type": "uint256"
                }
            ],
            "name": "PaymentReleased",
            "type": "event"
        },
        {
            "anonymous": false,
            "inputs": [
                {
                    "indexed": true,
                    "internalType": "address",
                    "name": "from",
                    "type": "address"
                },
                {
                    "indexed": true,
                    "internalType": "address",
                    "name": "to",
                    "type": "address"
                },
                {
                    "indexed": true,
                    "internalType": "uint256",
                    "name": "tokenId",
                    "type": "uint256"
                }
            ],
            "name": "Transfer",
            "type": "event"
        },
        {
            "inputs": [],
            "name": "MAX_SUPPLY",
            "outputs": [
                {
                    "internalType": "uint256",
                    "name": "",
                    "type": "uint256"
                }
            ],
            "stateMutability": "view",
            "type": "function"
        },
        {
            "inputs": [
                {
                    "internalType": "address",
                    "name": "to",
                    "type": "address"
                },
                {
                    "internalType": "uint256",
                    "name": "tokenId",
                    "type": "uint256"
                }
            ],
            "name": "approve",
            "outputs": [],
            "stateMutability": "nonpayable",
            "type": "function"
        },
        {
            "inputs": [
                {
                    "internalType": "address",
                    "name": "owner",
                    "type": "address"
                }
            ],
            "name": "balanceOf",
            "outputs": [
                {
                    "internalType": "uint256",
                    "name": "",
                    "type": "uint256"
                }
            ],
            "stateMutability": "view",
            "type": "function"
        },
        {
            "inputs": [],
            "name": "baseTokenURI",
            "outputs": [
                {
                    "internalType": "string",
                    "name": "",
                    "type": "string"
                }
            ],
            "stateMutability": "view",
            "type": "function"
        },
        {
            "inputs": [
                {
                    "internalType": "uint256",
                    "name": "tokenId",
                    "type": "uint256"
                }
            ],
            "name": "getApproved",
            "outputs": [
                {
                    "internalType": "address",
                    "name": "",
                    "type": "address"
                }
            ],
            "stateMutability": "view",
            "type": "function"
        },
        {
            "inputs": [
                {
                    "internalType": "uint256",
                    "name": "tokenId",
                    "type": "uint256"
                }
            ],
            "name": "getOwnershipData",
            "outputs": [
                {
                    "components": [
                        {
                            "internalType": "address",
                            "name": "addr",
                            "type": "address"
                        },
                        {
                            "internalType": "uint64",
                            "name": "startTimestamp",
                            "type": "uint64"
                        }
                    ],
                    "internalType": "struct ERC721A.TokenOwnership",
                    "name": "",
                    "type": "tuple"
                }
            ],
            "stateMutability": "view",
            "type": "function"
        },
        {
            "inputs": [
                {
                    "internalType": "uint256[]",
                    "name": "quantity",
                    "type": "uint256[]"
                },
                {
                    "internalType": "address[]",
                    "name": "recipient",
                    "type": "address[]"
                }
            ],
            "name": "gift",
            "outputs": [],
            "stateMutability": "nonpayable",
            "type": "function"
        },
        {
            "inputs": [],
            "name": "isAllowListActive",
            "outputs": [
                {
                    "internalType": "bool",
                    "name": "",
                    "type": "bool"
                }
            ],
            "stateMutability": "view",
            "type": "function"
        },
        {
            "inputs": [
                {
                    "internalType": "address",
                    "name": "owner",
                    "type": "address"
                },
                {
                    "internalType": "address",
                    "name": "operator",
                    "type": "address"
                }
            ],
            "name": "isApprovedForAll",
            "outputs": [
                {
                    "internalType": "bool",
                    "name": "",
                    "type": "bool"
                }
            ],
            "stateMutability": "view",
            "type": "function"
        },
        {
            "inputs": [],
            "name": "maxMint",
            "outputs": [
                {
                    "internalType": "uint256",
                    "name": "",
                    "type": "uint256"
                }
            ],
            "stateMutability": "view",
            "type": "function"
        },
        {
            "inputs": [
                {
                    "internalType": "uint256",
                    "name": "_mintAmount",
                    "type": "uint256"
                }
            ],
            "name": "mint",
            "outputs": [],
            "stateMutability": "payable",
            "type": "function"
        },
        {
            "inputs": [
                {
                    "internalType": "uint256",
                    "name": "_mintAmount",
                    "type": "uint256"
                }
            ],
            "name": "mintPresale",
            "outputs": [],
            "stateMutability": "payable",
            "type": "function"
        },
        {
            "inputs": [],
            "name": "name",
            "outputs": [
                {
                    "internalType": "string",
                    "name": "",
                    "type": "string"
                }
            ],
            "stateMutability": "view",
            "type": "function"
        },
        {
            "inputs": [
                {
                    "internalType": "address",
                    "name": "owner",
                    "type": "address"
                }
            ],
            "name": "numberMinted",
            "outputs": [
                {
                    "internalType": "uint256",
                    "name": "",
                    "type": "uint256"
                }
            ],
            "stateMutability": "view",
            "type": "function"
        },
        {
            "inputs": [],
            "name": "owner",
            "outputs": [
                {
                    "internalType": "address",
                    "name": "",
                    "type": "address"
                }
            ],
            "stateMutability": "view",
            "type": "function"
        },
        {
            "inputs": [
                {
                    "internalType": "uint256",
                    "name": "tokenId",
                    "type": "uint256"
                }
            ],
            "name": "ownerOf",
            "outputs": [
                {
                    "internalType": "address",
                    "name": "",
                    "type": "address"
                }
            ],
            "stateMutability": "view",
            "type": "function"
        },
        {
            "inputs": [
                {
                    "internalType": "uint256",
                    "name": "index",
                    "type": "uint256"
                }
            ],
            "name": "payee",
            "outputs": [
                {
                    "internalType": "address",
                    "name": "",
                    "type": "address"
                }
            ],
            "stateMutability": "view",
            "type": "function"
        },
        {
            "inputs": [
                {
                    "internalType": "address payable",
                    "name": "account",
                    "type": "address"
                }
            ],
            "name": "release",
            "outputs": [],
            "stateMutability": "nonpayable",
            "type": "function"
        },
        {
            "inputs": [
                {
                    "internalType": "contract IERC20",
                    "name": "token",
                    "type": "address"
                },
                {
                    "internalType": "address",
                    "name": "account",
                    "type": "address"
                }
            ],
            "name": "release",
            "outputs": [],
            "stateMutability": "nonpayable",
            "type": "function"
        },
        {
            "inputs": [
                {
                    "internalType": "contract IERC20",
                    "name": "token",
                    "type": "address"
                },
                {
                    "internalType": "address",
                    "name": "account",
                    "type": "address"
                }
            ],
            "name": "released",
            "outputs": [
                {
                    "internalType": "uint256",
                    "name": "",
                    "type": "uint256"
                }
            ],
            "stateMutability": "view",
            "type": "function"
        },
        {
            "inputs": [
                {
                    "internalType": "address",
                    "name": "account",
                    "type": "address"
                }
            ],
            "name": "released",
            "outputs": [
                {
                    "internalType": "uint256",
                    "name": "",
                    "type": "uint256"
                }
            ],
            "stateMutability": "view",
            "type": "function"
        },
        {
            "inputs": [],
            "name": "renounceOwnership",
            "outputs": [],
            "stateMutability": "nonpayable",
            "type": "function"
        },
        {
            "inputs": [
                {
                    "internalType": "address",
                    "name": "from",
                    "type": "address"
                },
                {
                    "internalType": "address",
                    "name": "to",
                    "type": "address"
                },
                {
                    "internalType": "uint256",
                    "name": "tokenId",
                    "type": "uint256"
                }
            ],
            "name": "safeTransferFrom",
            "outputs": [],
            "stateMutability": "nonpayable",
            "type": "function"
        },
        {
            "inputs": [
                {
                    "internalType": "address",
                    "name": "from",
                    "type": "address"
                },
                {
                    "internalType": "address",
                    "name": "to",
                    "type": "address"
                },
                {
                    "internalType": "uint256",
                    "name": "tokenId",
                    "type": "uint256"
                },
                {
                    "internalType": "bytes",
                    "name": "_data",
                    "type": "bytes"
                }
            ],
            "name": "safeTransferFrom",
            "outputs": [],
            "stateMutability": "nonpayable",
            "type": "function"
        },
        {
            "inputs": [],
            "name": "saleIsActive",
            "outputs": [
                {
                    "internalType": "bool",
                    "name": "",
                    "type": "bool"
                }
            ],
            "stateMutability": "view",
            "type": "function"
        },
        {
            "inputs": [
                {
                    "internalType": "address[]",
                    "name": "addresses",
                    "type": "address[]"
                },
                {
                    "internalType": "uint8",
                    "name": "numAllowedToMint",
                    "type": "uint8"
                }
            ],
            "name": "setAllowList",
            "outputs": [],
            "stateMutability": "nonpayable",
            "type": "function"
        },
        {
            "inputs": [
                {
                    "internalType": "address",
                    "name": "operator",
                    "type": "address"
                },
                {
                    "internalType": "bool",
                    "name": "approved",
                    "type": "bool"
                }
            ],
            "name": "setApprovalForAll",
            "outputs": [],
            "stateMutability": "nonpayable",
            "type": "function"
        },
        {
            "inputs": [
                {
                    "internalType": "string",
                    "name": "_newBaseURI",
                    "type": "string"
                }
            ],
            "name": "setBaseURI",
            "outputs": [],
            "stateMutability": "nonpayable",
            "type": "function"
        },
        {
            "inputs": [
                {
                    "internalType": "bool",
                    "name": "_isAllowListActive",
                    "type": "bool"
                }
            ],
            "name": "setIsAllowListActive",
            "outputs": [],
            "stateMutability": "nonpayable",
            "type": "function"
        },
        {
            "inputs": [
                {
                    "internalType": "uint256",
                    "name": "_newPrice",
                    "type": "uint256"
                }
            ],
            "name": "setPrice",
            "outputs": [],
            "stateMutability": "nonpayable",
            "type": "function"
        },
        {
            "inputs": [
                {
                    "internalType": "bool",
                    "name": "newState",
                    "type": "bool"
                }
            ],
            "name": "setSaleState",
            "outputs": [],
            "stateMutability": "nonpayable",
            "type": "function"
        },
        {
            "inputs": [
                {
                    "internalType": "address",
                    "name": "account",
                    "type": "address"
                }
            ],
            "name": "shares",
            "outputs": [
                {
                    "internalType": "uint256",
                    "name": "",
                    "type": "uint256"
                }
            ],
            "stateMutability": "view",
            "type": "function"
        },
        {
            "inputs": [
                {
                    "internalType": "bytes4",
                    "name": "interfaceId",
                    "type": "bytes4"
                }
            ],
            "name": "supportsInterface",
            "outputs": [
                {
                    "internalType": "bool",
                    "name": "",
                    "type": "bool"
                }
            ],
            "stateMutability": "view",
            "type": "function"
        },
        {
            "inputs": [],
            "name": "symbol",
            "outputs": [
                {
                    "internalType": "string",
                    "name": "",
                    "type": "string"
                }
            ],
            "stateMutability": "view",
            "type": "function"
        },
        {
            "inputs": [
                {
                    "internalType": "uint256",
                    "name": "index",
                    "type": "uint256"
                }
            ],
            "name": "tokenByIndex",
            "outputs": [
                {
                    "internalType": "uint256",
                    "name": "",
                    "type": "uint256"
                }
            ],
            "stateMutability": "view",
            "type": "function"
        },
        {
            "inputs": [
                {
                    "internalType": "address",
                    "name": "owner",
                    "type": "address"
                },
                {
                    "internalType": "uint256",
                    "name": "index",
                    "type": "uint256"
                }
            ],
            "name": "tokenOfOwnerByIndex",
            "outputs": [
                {
                    "internalType": "uint256",
                    "name": "",
                    "type": "uint256"
                }
            ],
            "stateMutability": "view",
            "type": "function"
        },
        {
            "inputs": [
                {
                    "internalType": "uint256",
                    "name": "tokenId",
                    "type": "uint256"
                }
            ],
            "name": "tokenURI",
            "outputs": [
                {
                    "internalType": "string",
                    "name": "",
                    "type": "string"
                }
            ],
            "stateMutability": "view",
            "type": "function"
        },
        {
            "inputs": [
                {
                    "internalType": "contract IERC20",
                    "name": "token",
                    "type": "address"
                }
            ],
            "name": "totalReleased",
            "outputs": [
                {
                    "internalType": "uint256",
                    "name": "",
                    "type": "uint256"
                }
            ],
            "stateMutability": "view",
            "type": "function"
        },
        {
            "inputs": [],
            "name": "totalReleased",
            "outputs": [
                {
                    "internalType": "uint256",
                    "name": "",
                    "type": "uint256"
                }
            ],
            "stateMutability": "view",
            "type": "function"
        },
        {
            "inputs": [],
            "name": "totalShares",
            "outputs": [
                {
                    "internalType": "uint256",
                    "name": "",
                    "type": "uint256"
                }
            ],
            "stateMutability": "view",
            "type": "function"
        },
        {
            "inputs": [],
            "name": "totalSupply",
            "outputs": [
                {
                    "internalType": "uint256",
                    "name": "",
                    "type": "uint256"
                }
            ],
            "stateMutability": "view",
            "type": "function"
        },
        {
            "inputs": [
                {
                    "internalType": "address",
                    "name": "from",
                    "type": "address"
                },
                {
                    "internalType": "address",
                    "name": "to",
                    "type": "address"
                },
                {
                    "internalType": "uint256",
                    "name": "tokenId",
                    "type": "uint256"
                }
            ],
            "name": "transferFrom",
            "outputs": [],
            "stateMutability": "nonpayable",
            "type": "function"
        },
        {
            "inputs": [
                {
                    "internalType": "address",
                    "name": "newOwner",
                    "type": "address"
                }
            ],
            "name": "transferOwnership",
            "outputs": [],
            "stateMutability": "nonpayable",
            "type": "function"
        },
        {
            "inputs": [],
            "name": "withdraw",
            "outputs": [],
            "stateMutability": "payable",
            "type": "function"
        },
        {
            "stateMutability": "payable",
            "type": "receive"
        }
    ],
    "bytecode": "0x600080556010805461ffff19169055600f60125566f8b0a10e47000060135560c06040527355c0f20123862ad1f6c1b235d06ccb5ebbe97414608090815273320866337febac0414e54ba5e70453c912bb512460a05262000065906015906002620005be565b506040805180820190915260148152605060208201526200008b90601690600262000628565b503480156200009957600080fd5b5060405162003ebe38038062003ebe833981016040819052620000bc91620007cc565b60158054806020026020016040519081016040528092919081815260200182805480156200011457602002820191906000526020600020905b81546001600160a01b03168152600190910190602001808311620000f5575b505050505060168054806020026020016040519081016040528092919081815260200182805480156200016757602002820191906000526020600020905b81548152602001906001019080831162000152575b5050875188935087925062000185915060019060208501906200066b565b5080516200019b9060029060208401906200066b565b505050620001b8620001b26200030560201b60201c565b62000309565b80518251146200022a5760405162461bcd60e51b815260206004820152603260248201527f5061796d656e7453706c69747465723a2070617965657320616e6420736861726044820152710cae640d8cadccee8d040dad2e6dac2e8c6d60731b60648201526084015b60405180910390fd5b60008251116200027d5760405162461bcd60e51b815260206004820152601a60248201527f5061796d656e7453706c69747465723a206e6f20706179656573000000000000604482015260640162000221565b60005b8251811015620002e957620002d4838281518110620002a357620002a36200085d565b6020026020010151838381518110620002c057620002c06200085d565b60200260200101516200035b60201b60201c565b80620002e08162000889565b91505062000280565b50506001600f5550620002fc8162000549565b505050620008ff565b3390565b600780546001600160a01b038381166001600160a01b0319831681179093556040519116919082907f8be0079c531659141344cd1fd0a4f28419497f9722a3daafe3b4186f6b6457e090600090a35050565b6001600160a01b038216620003c85760405162461bcd60e51b815260206004820152602c60248201527f5061796d656e7453706c69747465723a206163636f756e74206973207468652060448201526b7a65726f206164647265737360a01b606482015260840162000221565b600081116200041a5760405162461bcd60e51b815260206004820152601d60248201527f5061796d656e7453706c69747465723a20736861726573206172652030000000604482015260640162000221565b6001600160a01b0382166000908152600a602052604090205415620004965760405162461bcd60e51b815260206004820152602b60248201527f5061796d656e7453706c69747465723a206163636f756e7420616c726561647960448201526a206861732073686172657360a81b606482015260840162000221565b600c8054600181019091557fdf6966c971051c3d54ec59162606531493a51404a002842f56009d7e5cf4a8c70180546001600160a01b0319166001600160a01b0384169081179091556000908152600a6020526040902081905560085462000500908290620008a7565b600855604080516001600160a01b0384168152602081018390527f40c340f65e17194d14ddddb073d3c9f888e3cb52b5aae0c6c7706b4fbc905fac910160405180910390a15050565b6007546001600160a01b03163314620005a55760405162461bcd60e51b815260206004820181905260248201527f4f776e61626c653a2063616c6c6572206973206e6f7420746865206f776e6572604482015260640162000221565b8051620005ba9060119060208401906200066b565b5050565b82805482825590600052602060002090810192821562000616579160200282015b828111156200061657825182546001600160a01b0319166001600160a01b03909116178255602090920191600190910190620005df565b5062000624929150620006e8565b5090565b82805482825590600052602060002090810192821562000616579160200282015b8281111562000616578251829060ff1690559160200191906001019062000649565b8280546200067990620008c2565b90600052602060002090601f0160209004810192826200069d576000855562000616565b82601f10620006b857805160ff191683800117855562000616565b8280016001018555821562000616579182015b8281111562000616578251825591602001919060010190620006cb565b5b80821115620006245760008155600101620006e9565b634e487b7160e01b600052604160045260246000fd5b600082601f8301126200072757600080fd5b81516001600160401b0380821115620007445762000744620006ff565b604051601f8301601f19908116603f011681019082821181831017156200076f576200076f620006ff565b816040528381526020925086838588010111156200078c57600080fd5b600091505b83821015620007b0578582018301518183018401529082019062000791565b83821115620007c25760008385830101525b9695505050505050565b600080600060608486031215620007e257600080fd5b83516001600160401b0380821115620007fa57600080fd5b620008088783880162000715565b945060208601519150808211156200081f57600080fd5b6200082d8783880162000715565b935060408601519150808211156200084457600080fd5b50620008538682870162000715565b9150509250925092565b634e487b7160e01b600052603260045260246000fd5b634e487b7160e01b600052601160045260246000fd5b6000600019821415620008a057620008a062000873565b5060010190565b60008219821115620008bd57620008bd62000873565b500190565b600181811c90821680620008d757607f821691505b60208210811415620008f957634e487b7160e01b600052602260045260246000fd5b50919050565b6135af806200090f6000396000f3fe6080604052600436106102eb5760003560e01c80638295784d11610184578063c4e37095116100d6578063dc33e6811161008a578063eb8d244411610064578063eb8d2444146108d4578063f2fde38b146108ee578063f759867a1461090e57600080fd5b8063dc33e68114610856578063e33b7de314610876578063e985e9c51461088b57600080fd5b8063ce7c2ac2116100bb578063ce7c2ac2146107d5578063d547cfb71461080b578063d79779b21461082057600080fd5b8063c4e3709514610795578063c87b56dd146107b557600080fd5b806395d89b4111610138578063a0712d6811610112578063a0712d6814610742578063a22cb46514610755578063b88d4fde1461077557600080fd5b806395d89b41146106d757806396ea3a47146106ec5780639852595c1461070c57600080fd5b80638da5cb5b116101695780638da5cb5b1461064b57806391b7f5ed146106695780639231ab2a1461068957600080fd5b80638295784d1461060b5780638b83209b1461062b57600080fd5b80633ccfd60b1161023d57806355f804b3116101f1578063715018a6116101cb578063715018a6146105c0578063718bc4af146105d55780637501f741146105f557600080fd5b806355f804b3146105605780636352211e1461058057806370a08231146105a057600080fd5b806342842e0e1161022257806342842e0e1461050057806348b75044146105205780634f6ccce71461054057600080fd5b80633ccfd60b146104b2578063406072a9146104ba57600080fd5b8063191655871161029f5780632f745c59116102795780632f745c591461046857806332cb6b0c146104885780633a98ef391461049d57600080fd5b8063191655871461040957806323b872dd1461042957806329fc6bae1461044957600080fd5b8063081812fc116102d0578063081812fc14610390578063095ea7b3146103c857806318160ddd146103ea57600080fd5b806301ffc9a71461033957806306fdde031461036e57600080fd5b36610334577f6ef95f06320e7a25a04a175ca677b7052bdd97131872c2192525a629f51be77033604080516001600160a01b0390921682523460208301520160405180910390a1005b600080fd5b34801561034557600080fd5b50610359610354366004612efc565b610921565b60405190151581526020015b60405180910390f35b34801561037a57600080fd5b5061038361098e565b6040516103659190612f71565b34801561039c57600080fd5b506103b06103ab366004612f84565b610a20565b6040516001600160a01b039091168152602001610365565b3480156103d457600080fd5b506103e86103e3366004612fb2565b610ac0565b005b3480156103f657600080fd5b506000545b604051908152602001610365565b34801561041557600080fd5b506103e8610424366004612fde565b610bd8565b34801561043557600080fd5b506103e8610444366004612ffb565b610d89565b34801561045557600080fd5b5060105461035990610100900460ff1681565b34801561047457600080fd5b506103fb610483366004612fb2565b610d94565b34801561049457600080fd5b506103fb601981565b3480156104a957600080fd5b506008546103fb565b6103e8610f11565b3480156104c657600080fd5b506103fb6104d536600461303c565b6001600160a01b039182166000908152600e6020908152604080832093909416825291909152205490565b34801561050c57600080fd5b506103e861051b366004612ffb565b610fb1565b34801561052c57600080fd5b506103e861053b36600461303c565b610fcc565b34801561054c57600080fd5b506103fb61055b366004612f84565b611228565b34801561056c57600080fd5b506103e861057b366004613101565b61128a565b34801561058c57600080fd5b506103b061059b366004612f84565b6112e9565b3480156105ac57600080fd5b506103fb6105bb366004612fde565b6112fb565b3480156105cc57600080fd5b506103e861139e565b3480156105e157600080fd5b506103e86105f0366004613158565b6113f2565b34801561060157600080fd5b506103fb60125481565b34801561061757600080fd5b506103e86106263660046131c1565b611454565b34801561063757600080fd5b506103b0610646366004612f84565b611508565b34801561065757600080fd5b506007546001600160a01b03166103b0565b34801561067557600080fd5b506103e8610684366004612f84565b611538565b34801561069557600080fd5b506106a96106a4366004612f84565b611585565b6040805182516001600160a01b0316815260209283015167ffffffffffffffff169281019290925201610365565b3480156106e357600080fd5b506103836115a2565b3480156106f857600080fd5b506103e861070736600461321e565b6115b1565b34801561071857600080fd5b506103fb610727366004612fde565b6001600160a01b03166000908152600b602052604090205490565b6103e8610750366004612f84565b6116bc565b34801561076157600080fd5b506103e861077036600461328a565b61189c565b34801561078157600080fd5b506103e86107903660046132b8565b611961565b3480156107a157600080fd5b506103e86107b0366004613158565b6119e0565b3480156107c157600080fd5b506103836107d0366004612f84565b611a3b565b3480156107e157600080fd5b506103fb6107f0366004612fde565b6001600160a01b03166000908152600a602052604090205490565b34801561081757600080fd5b50610383611afa565b34801561082c57600080fd5b506103fb61083b366004612fde565b6001600160a01b03166000908152600d602052604090205490565b34801561086257600080fd5b506103fb610871366004612fde565b611b88565b34801561088257600080fd5b506009546103fb565b34801561089757600080fd5b506103596108a636600461303c565b6001600160a01b03918216600090815260066020908152604080832093909416825291909152205460ff1690565b3480156108e057600080fd5b506010546103599060ff1681565b3480156108fa57600080fd5b506103e8610909366004612fde565b611b93565b6103e861091c366004612f84565b611c60565b60006001600160e01b031982166380ac58cd60e01b148061095257506001600160e01b03198216635b5e139f60e01b145b8061096d57506001600160e01b0319821663780e9d6360e01b145b8061098857506301ffc9a760e01b6001600160e01b03198316145b92915050565b60606001805461099d90613338565b80601f01602080910402602001604051908101604052809291908181526020018280546109c990613338565b8015610a165780601f106109eb57610100808354040283529160200191610a16565b820191906000526020600020905b8154815290600101906020018083116109f957829003601f168201915b5050505050905090565b6000610a2d826000541190565b610aa45760405162461bcd60e51b815260206004820152602d60248201527f455243373231413a20617070726f76656420717565727920666f72206e6f6e6560448201527f78697374656e7420746f6b656e0000000000000000000000000000000000000060648201526084015b60405180910390fd5b506000908152600560205260409020546001600160a01b031690565b6000610acb826112e9565b9050806001600160a01b0316836001600160a01b03161415610b3a5760405162461bcd60e51b815260206004820152602260248201527f455243373231413a20617070726f76616c20746f2063757272656e74206f776e60448201526132b960f11b6064820152608401610a9b565b336001600160a01b0382161480610b565750610b5681336108a6565b610bc85760405162461bcd60e51b815260206004820152603960248201527f455243373231413a20617070726f76652063616c6c6572206973206e6f74206f60448201527f776e6572206e6f7220617070726f76656420666f7220616c6c000000000000006064820152608401610a9b565b610bd3838383611f29565b505050565b6001600160a01b0381166000908152600a6020526040902054610c4c5760405162461bcd60e51b815260206004820152602660248201527f5061796d656e7453706c69747465723a206163636f756e7420686173206e6f2060448201526573686172657360d01b6064820152608401610a9b565b6000610c5760095490565b610c619047613389565b90506000610c8e8383610c89866001600160a01b03166000908152600b602052604090205490565b611f92565b905080610cf15760405162461bcd60e51b815260206004820152602b60248201527f5061796d656e7453706c69747465723a206163636f756e74206973206e6f742060448201526a191d59481c185e5b595b9d60aa1b6064820152608401610a9b565b6001600160a01b0383166000908152600b602052604081208054839290610d19908490613389565b925050819055508060096000828254610d329190613389565b90915550610d4290508382611fd8565b604080516001600160a01b0385168152602081018390527fdf20fd1e76bc69d672e4814fafb2c449bba3a5369d8359adf9e05e6fde87b056910160405180910390a1505050565b610bd38383836120f1565b6000610d9f836112fb565b8210610df85760405162461bcd60e51b815260206004820152602260248201527f455243373231413a206f776e657220696e646578206f7574206f6620626f756e604482015261647360f01b6064820152608401610a9b565b600080549080805b83811015610ea2576000818152600360209081526040918290208251808401909352546001600160a01b038116808452600160a01b90910467ffffffffffffffff169183019190915215610e5357805192505b876001600160a01b0316836001600160a01b03161415610e8f5786841415610e815750935061098892505050565b83610e8b816133a1565b9450505b5080610e9a816133a1565b915050610e00565b5060405162461bcd60e51b815260206004820152602e60248201527f455243373231413a20756e61626c6520746f2067657420746f6b656e206f662060448201527f6f776e657220627920696e6465780000000000000000000000000000000000006064820152608401610a9b565b6007546001600160a01b03163314610f595760405162461bcd60e51b8152602060048201819052602482015260008051602061355a8339815191526044820152606401610a9b565b604051600090339047908381818185875af1925050503d8060008114610f9b576040519150601f19603f3d011682016040523d82523d6000602084013e610fa0565b606091505b5050905080610fae57600080fd5b50565b610bd383838360405180602001604052806000815250611961565b6001600160a01b0381166000908152600a60205260409020546110405760405162461bcd60e51b815260206004820152602660248201527f5061796d656e7453706c69747465723a206163636f756e7420686173206e6f2060448201526573686172657360d01b6064820152608401610a9b565b6001600160a01b0382166000908152600d60205260408120546040516370a0823160e01b81523060048201526001600160a01b038516906370a0823190602401602060405180830381865afa15801561109d573d6000803e3d6000fd5b505050506040513d601f19601f820116820180604052508101906110c191906133bc565b6110cb9190613389565b905060006111048383610c8987876001600160a01b039182166000908152600e6020908152604080832093909416825291909152205490565b9050806111675760405162461bcd60e51b815260206004820152602b60248201527f5061796d656e7453706c69747465723a206163636f756e74206973206e6f742060448201526a191d59481c185e5b595b9d60aa1b6064820152608401610a9b565b6001600160a01b038085166000908152600e602090815260408083209387168352929052908120805483929061119e908490613389565b90915550506001600160a01b0384166000908152600d6020526040812080548392906111cb908490613389565b909155506111dc9050848483612472565b604080516001600160a01b038581168252602082018490528616917f3be5b7a71e84ed12875d241991c70855ac5817d847039e17a9d895c1ceb0f18a910160405180910390a250505050565b6000805482106112865760405162461bcd60e51b815260206004820152602360248201527f455243373231413a20676c6f62616c20696e646578206f7574206f6620626f756044820152626e647360e81b6064820152608401610a9b565b5090565b6007546001600160a01b031633146112d25760405162461bcd60e51b8152602060048201819052602482015260008051602061355a8339815191526044820152606401610a9b565b80516112e5906011906020840190612e56565b5050565b60006112f4826124d9565b5192915050565b60006001600160a01b0382166113795760405162461bcd60e51b815260206004820152602b60248201527f455243373231413a2062616c616e636520717565727920666f7220746865207a60448201527f65726f20616464726573730000000000000000000000000000000000000000006064820152608401610a9b565b506001600160a01b03166000908152600460205260409020546001600160801b031690565b6007546001600160a01b031633146113e65760405162461bcd60e51b8152602060048201819052602482015260008051602061355a8339815191526044820152606401610a9b565b6113f060006125cc565b565b6007546001600160a01b0316331461143a5760405162461bcd60e51b8152602060048201819052602482015260008051602061355a8339815191526044820152606401610a9b565b601080549115156101000261ff0019909216919091179055565b6007546001600160a01b0316331461149c5760405162461bcd60e51b8152602060048201819052602482015260008051602061355a8339815191526044820152606401610a9b565b60005b82811015611502578160ff16601460008686858181106114c1576114c16133d5565b90506020020160208101906114d69190612fde565b6001600160a01b03168152602081019190915260400160002055806114fa816133a1565b91505061149f565b50505050565b6000600c828154811061151d5761151d6133d5565b6000918252602090912001546001600160a01b031692915050565b6007546001600160a01b031633146115805760405162461bcd60e51b8152602060048201819052602482015260008051602061355a8339815191526044820152606401610a9b565b601355565b6040805180820190915260008082526020820152610988826124d9565b60606002805461099d90613338565b6007546001600160a01b031633146115f95760405162461bcd60e51b8152602060048201819052602482015260008051602061355a8339815191526044820152606401610a9b565b8281146116525760405162461bcd60e51b815260206004820152602160248201527f50726f76696465207175616e74697469657320616e6420726563697069656e746044820152607360f81b6064820152608401610a9b565b60005b818110156116b5576116a5838383818110611672576116726133d5565b90506020020160208101906116879190612fde565b868684818110611699576116996133d5565b9050602002013561262b565b6116ae816133a1565b9050611655565b5050505050565b32331461170b5760405162461bcd60e51b815260206004820152601e60248201527f5468652063616c6c657220697320616e6f7468657220636f6e747261637400006044820152606401610a9b565b60105460ff1661175d5760405162461bcd60e51b815260206004820152601960248201527f5075626c69632073616c65206973206e6f7420616374697665000000000000006044820152606401610a9b565b6012548161176a33611b88565b6117749190613389565b11156117c25760405162461bcd60e51b815260206004820152601a60248201527f546f6f206d616e792c20706c65617365206d696e74206c6573730000000000006044820152606401610a9b565b6019816117ce60005490565b6117d89190613389565b11156118355760405162461bcd60e51b815260206004820152602660248201527f507572636861736520776f756c6420657863656564206d617820746f6b656e20604482015265737570706c7960d01b6064820152608401610a9b565b8060135461184391906133eb565b3410156118925760405162461bcd60e51b815260206004820152601f60248201527f45746865722076616c75652073656e74206973206e6f7420636f7272656374006044820152606401610a9b565b610fae338261262b565b6001600160a01b0382163314156118f55760405162461bcd60e51b815260206004820152601a60248201527f455243373231413a20617070726f766520746f2063616c6c65720000000000006044820152606401610a9b565b3360008181526006602090815260408083206001600160a01b03871680855290835292819020805460ff191686151590811790915590519081529192917f17307eab39ab6107e8899845ad3d59bd9653f200f220920489ca2b5937696c31910160405180910390a35050565b61196c8484846120f1565b61197884848484612645565b6115025760405162461bcd60e51b815260206004820152603360248201527f455243373231413a207472616e7366657220746f206e6f6e204552433732315260448201527232b1b2b4bb32b91034b6b83632b6b2b73a32b960691b6064820152608401610a9b565b6007546001600160a01b03163314611a285760405162461bcd60e51b8152602060048201819052602482015260008051602061355a8339815191526044820152606401610a9b565b6010805460ff1916911515919091179055565b6060611a48826000541190565b611a9e5760405162461bcd60e51b815260206004820152602160248201527f4552433732314d657461646174613a204e6f6e6578697374656e7420746f6b656044820152603760f91b6064820152608401610a9b565b6000611aa861278f565b90506000815111611ac85760405180602001604052806000815250611af3565b80611ad28461279e565b604051602001611ae392919061340a565b6040516020818303038152906040525b9392505050565b60118054611b0790613338565b80601f0160208091040260200160405190810160405280929190818152602001828054611b3390613338565b8015611b805780601f10611b5557610100808354040283529160200191611b80565b820191906000526020600020905b815481529060010190602001808311611b6357829003601f168201915b505050505081565b6000610988826128b4565b6007546001600160a01b03163314611bdb5760405162461bcd60e51b8152602060048201819052602482015260008051602061355a8339815191526044820152606401610a9b565b6001600160a01b038116611c575760405162461bcd60e51b815260206004820152602660248201527f4f776e61626c653a206e6577206f776e657220697320746865207a65726f206160448201527f64647265737300000000000000000000000000000000000000000000000000006064820152608401610a9b565b610fae816125cc565b323314611caf5760405162461bcd60e51b815260206004820152601e60248201527f5468652063616c6c657220697320616e6f7468657220636f6e747261637400006044820152606401610a9b565b33600090815260146020526040902054601054610100900460ff16611d165760405162461bcd60e51b815260206004820152601860248201527f416c6c6f77206c697374206973206e6f742061637469766500000000000000006044820152606401610a9b565b60105460ff1615611d8f5760405162461bcd60e51b815260206004820152602560248201527f5075626c69632053616c65206973206163746976652c2077726f6e672066756e60448201527f6374696f6e0000000000000000000000000000000000000000000000000000006064820152608401610a9b565b60008111611ddf5760405162461bcd60e51b815260206004820152601f60248201527f6e6f7420656c696769626c6520666f7220616c6c6f776c697374206d696e74006044820152606401610a9b565b80821115611e2f5760405162461bcd60e51b815260206004820152601060248201527f547279206d696e74696e67206c657373000000000000000000000000000000006044820152606401610a9b565b601982611e3b60005490565b611e459190613389565b1115611ea25760405162461bcd60e51b815260206004820152602660248201527f507572636861736520776f756c6420657863656564206d617820746f6b656e20604482015265737570706c7960d01b6064820152608401610a9b565b81601354611eb091906133eb565b341015611eff5760405162461bcd60e51b815260206004820152601f60248201527f45746865722076616c75652073656e74206973206e6f7420636f7272656374006044820152606401610a9b565b611f098282613439565b336000818152601460205260408120929092559091506112e5908361262b565b600082815260056020526040808220805473ffffffffffffffffffffffffffffffffffffffff19166001600160a01b0387811691821790925591518593918516917f8c5be1e5ebec7d5bd14f71427d1e84f3dd0314c0f7b2291e5b200ac8c7c3b92591a4505050565b6008546001600160a01b0384166000908152600a602052604081205490918391611fbc90866133eb565b611fc69190613466565b611fd09190613439565b949350505050565b804710156120285760405162461bcd60e51b815260206004820152601d60248201527f416464726573733a20696e73756666696369656e742062616c616e63650000006044820152606401610a9b565b6000826001600160a01b03168260405160006040518083038185875af1925050503d8060008114612075576040519150601f19603f3d011682016040523d82523d6000602084013e61207a565b606091505b5050905080610bd35760405162461bcd60e51b815260206004820152603a60248201527f416464726573733a20756e61626c6520746f2073656e642076616c75652c207260448201527f6563697069656e74206d617920686176652072657665727465640000000000006064820152608401610a9b565b60006120fc826124d9565b80519091506000906001600160a01b0316336001600160a01b0316148061213357503361212884610a20565b6001600160a01b0316145b806121455750815161214590336108a6565b9050806121ba5760405162461bcd60e51b815260206004820152603260248201527f455243373231413a207472616e736665722063616c6c6572206973206e6f742060448201527f6f776e6572206e6f7220617070726f76656400000000000000000000000000006064820152608401610a9b565b846001600160a01b031682600001516001600160a01b0316146122455760405162461bcd60e51b815260206004820152602660248201527f455243373231413a207472616e736665722066726f6d20696e636f727265637460448201527f206f776e657200000000000000000000000000000000000000000000000000006064820152608401610a9b565b6001600160a01b0384166122c15760405162461bcd60e51b815260206004820152602560248201527f455243373231413a207472616e7366657220746f20746865207a65726f20616460448201527f64726573730000000000000000000000000000000000000000000000000000006064820152608401610a9b565b6122d16000848460000151611f29565b6001600160a01b03858116600090815260046020908152604080832080546fffffffffffffffffffffffffffffffff198082166001600160801b03928316600019018316179092558986168086528386208054938416938316600190810190931693909317909255825180840184529182524267ffffffffffffffff9081168386019081528a8752600390955292852091518254945196166001600160e01b031990941693909317600160a01b95909216949094021790925590612396908590613389565b6000818152600360205260409020549091506001600160a01b0316612428576123c0816000541190565b156124285760408051808201825284516001600160a01b03908116825260208087015167ffffffffffffffff9081168285019081526000878152600390935294909120925183549451909116600160a01b026001600160e01b03199094169116179190911790555b83856001600160a01b0316876001600160a01b03167fddf252ad1be2c89b69c2b068fc378daa952ba7f163c4a11628f55a4df523b3ef60405160405180910390a45b505050505050565b604080516001600160a01b038416602482015260448082018490528251808303909101815260649091019091526020810180517bffffffffffffffffffffffffffffffffffffffffffffffffffffffff1663a9059cbb60e01b179052610bd390849061295e565b60408051808201909152600080825260208201526124f8826000541190565b61256a5760405162461bcd60e51b815260206004820152602a60248201527f455243373231413a206f776e657220717565727920666f72206e6f6e6578697360448201527f74656e7420746f6b656e000000000000000000000000000000000000000000006064820152608401610a9b565b815b6000818152600360209081526040918290208251808401909352546001600160a01b038116808452600160a01b90910467ffffffffffffffff1691830191909152156125b9579392505050565b50806125c48161347a565b91505061256c565b600780546001600160a01b0383811673ffffffffffffffffffffffffffffffffffffffff19831681179093556040519116919082907f8be0079c531659141344cd1fd0a4f28419497f9722a3daafe3b4186f6b6457e090600090a35050565b6112e5828260405180602001604052806000815250612a43565b60006001600160a01b0384163b1561278457604051630a85bd0160e11b81526001600160a01b0385169063150b7a0290612689903390899088908890600401613491565b6020604051808303816000875af19250505080156126c4575060408051601f3d908101601f191682019092526126c1918101906134cd565b60015b61276a573d8080156126f2576040519150601f19603f3d011682016040523d82523d6000602084013e6126f7565b606091505b5080516127625760405162461bcd60e51b815260206004820152603360248201527f455243373231413a207472616e7366657220746f206e6f6e204552433732315260448201527232b1b2b4bb32b91034b6b83632b6b2b73a32b960691b6064820152608401610a9b565b805181602001fd5b6001600160e01b031916630a85bd0160e11b149050611fd0565b506001949350505050565b60606011805461099d90613338565b6060816127c25750506040805180820190915260018152600360fc1b602082015290565b8160005b81156127ec57806127d6816133a1565b91506127e59050600a83613466565b91506127c6565b60008167ffffffffffffffff81111561280757612807613075565b6040519080825280601f01601f191660200182016040528015612831576020820181803683370190505b5090505b8415611fd057612846600183613439565b9150612853600a866134ea565b61285e906030613389565b60f81b818381518110612873576128736133d5565b60200101907effffffffffffffffffffffffffffffffffffffffffffffffffffffffffffff1916908160001a9053506128ad600a86613466565b9450612835565b60006001600160a01b0382166129325760405162461bcd60e51b815260206004820152603160248201527f455243373231413a206e756d626572206d696e74656420717565727920666f7260448201527f20746865207a65726f20616464726573730000000000000000000000000000006064820152608401610a9b565b506001600160a01b0316600090815260046020526040902054600160801b90046001600160801b031690565b60006129b3826040518060400160405280602081526020017f5361666545524332303a206c6f772d6c6576656c2063616c6c206661696c6564815250856001600160a01b0316612d4b9092919063ffffffff16565b805190915015610bd357808060200190518101906129d191906134fe565b610bd35760405162461bcd60e51b815260206004820152602a60248201527f5361666545524332303a204552433230206f7065726174696f6e20646964206e60448201527f6f742073756363656564000000000000000000000000000000000000000000006064820152608401610a9b565b6000546001600160a01b038416612aa65760405162461bcd60e51b815260206004820152602160248201527f455243373231413a206d696e7420746f20746865207a65726f206164647265736044820152607360f81b6064820152608401610a9b565b612ab1816000541190565b15612afe5760405162461bcd60e51b815260206004820152601d60248201527f455243373231413a20746f6b656e20616c7265616479206d696e7465640000006044820152606401610a9b565b60008311612b5a5760405162461bcd60e51b815260206004820152602360248201527f455243373231413a207175616e74697479206d7573742062652067726561746560448201526207220360ec1b6064820152608401610a9b565b6001600160a01b0384166000908152600460209081526040918290208251808401845290546001600160801b038082168352600160801b9091041691810191909152815180830190925280519091908190612bb690879061351b565b6001600160801b03168152602001858360200151612bd4919061351b565b6001600160801b039081169091526001600160a01b0380881660008181526004602090815260408083208751978301518716600160801b0297909616969096179094558451808601865291825267ffffffffffffffff4281168386019081528883526003909552948120915182549451909516600160a01b026001600160e01b031990941694909216939093179190911790915582905b85811015612d405760405182906001600160a01b038916906000907fddf252ad1be2c89b69c2b068fc378daa952ba7f163c4a11628f55a4df523b3ef908290a4612cb86000888488612645565b612d205760405162461bcd60e51b815260206004820152603360248201527f455243373231413a207472616e7366657220746f206e6f6e204552433732315260448201527232b1b2b4bb32b91034b6b83632b6b2b73a32b960691b6064820152608401610a9b565b81612d2a816133a1565b9250508080612d38906133a1565b915050612c6b565b50600081905561246a565b6060611fd0848460008585843b612da45760405162461bcd60e51b815260206004820152601d60248201527f416464726573733a2063616c6c20746f206e6f6e2d636f6e74726163740000006044820152606401610a9b565b600080866001600160a01b03168587604051612dc0919061353d565b60006040518083038185875af1925050503d8060008114612dfd576040519150601f19603f3d011682016040523d82523d6000602084013e612e02565b606091505b5091509150612e12828286612e1d565b979650505050505050565b60608315612e2c575081611af3565b825115612e3c5782518084602001fd5b8160405162461bcd60e51b8152600401610a9b9190612f71565b828054612e6290613338565b90600052602060002090601f016020900481019282612e845760008555612eca565b82601f10612e9d57805160ff1916838001178555612eca565b82800160010185558215612eca579182015b82811115612eca578251825591602001919060010190612eaf565b506112869291505b808211156112865760008155600101612ed2565b6001600160e01b031981168114610fae57600080fd5b600060208284031215612f0e57600080fd5b8135611af381612ee6565b60005b83811015612f34578181015183820152602001612f1c565b838111156115025750506000910152565b60008151808452612f5d816020860160208601612f19565b601f01601f19169290920160200192915050565b602081526000611af36020830184612f45565b600060208284031215612f9657600080fd5b5035919050565b6001600160a01b0381168114610fae57600080fd5b60008060408385031215612fc557600080fd5b8235612fd081612f9d565b946020939093013593505050565b600060208284031215612ff057600080fd5b8135611af381612f9d565b60008060006060848603121561301057600080fd5b833561301b81612f9d565b9250602084013561302b81612f9d565b929592945050506040919091013590565b6000806040838503121561304f57600080fd5b823561305a81612f9d565b9150602083013561306a81612f9d565b809150509250929050565b634e487b7160e01b600052604160045260246000fd5b600067ffffffffffffffff808411156130a6576130a6613075565b604051601f8501601f19908116603f011681019082821181831017156130ce576130ce613075565b816040528093508581528686860111156130e757600080fd5b858560208301376000602087830101525050509392505050565b60006020828403121561311357600080fd5b813567ffffffffffffffff81111561312a57600080fd5b8201601f8101841361313b57600080fd5b611fd08482356020840161308b565b8015158114610fae57600080fd5b60006020828403121561316a57600080fd5b8135611af38161314a565b60008083601f84011261318757600080fd5b50813567ffffffffffffffff81111561319f57600080fd5b6020830191508360208260051b85010111156131ba57600080fd5b9250929050565b6000806000604084860312156131d657600080fd5b833567ffffffffffffffff8111156131ed57600080fd5b6131f986828701613175565b909450925050602084013560ff8116811461321357600080fd5b809150509250925092565b6000806000806040858703121561323457600080fd5b843567ffffffffffffffff8082111561324c57600080fd5b61325888838901613175565b9096509450602087013591508082111561327157600080fd5b5061327e87828801613175565b95989497509550505050565b6000806040838503121561329d57600080fd5b82356132a881612f9d565b9150602083013561306a8161314a565b600080600080608085870312156132ce57600080fd5b84356132d981612f9d565b935060208501356132e981612f9d565b925060408501359150606085013567ffffffffffffffff81111561330c57600080fd5b8501601f8101871361331d57600080fd5b61332c8782356020840161308b565b91505092959194509250565b600181811c9082168061334c57607f821691505b6020821081141561336d57634e487b7160e01b600052602260045260246000fd5b50919050565b634e487b7160e01b600052601160045260246000fd5b6000821982111561339c5761339c613373565b500190565b60006000198214156133b5576133b5613373565b5060010190565b6000602082840312156133ce57600080fd5b5051919050565b634e487b7160e01b600052603260045260246000fd5b600081600019048311821515161561340557613405613373565b500290565b6000835161341c818460208801612f19565b835190830190613430818360208801612f19565b01949350505050565b60008282101561344b5761344b613373565b500390565b634e487b7160e01b600052601260045260246000fd5b60008261347557613475613450565b500490565b60008161348957613489613373565b506000190190565b60006001600160a01b038087168352808616602084015250836040830152608060608301526134c36080830184612f45565b9695505050505050565b6000602082840312156134df57600080fd5b8151611af381612ee6565b6000826134f9576134f9613450565b500690565b60006020828403121561351057600080fd5b8151611af38161314a565b60006001600160801b0380831681851680830382111561343057613430613373565b6000825161354f818460208701612f19565b919091019291505056fe4f776e61626c653a2063616c6c6572206973206e6f7420746865206f776e6572a264697066735822122018835071a1ea3859c57d7e397d61b5fd992e67f5c5636fc009ed8001d0efead164736f6c634300080b0033",
    "linkReferences": {},
    "deployedLinkReferences": {}
}