{
    "_format": "hh-sol-artifact-1",
    "contractName": "Smush",
    "sourceName": "contracts/Chfty.sol",
    "abi": [
        {
            "inputs": [
                {
                    "internalType": "string",
                    "name": "_name",
                    "type": "string"
                },
                {
                    "internalType": "string",
                    "name": "_symbol",
                    "type": "string"
                },
                {
                    "internalType": "string",
                    "name": "_initBaseURI",
                    "type": "string"
                }
            ],
            "stateMutability": "nonpayable",
            "type": "constructor"
        },
        {
            "anonymous": false,
            "inputs": [
                {
                    "indexed": true,
                    "internalType": "address",
                    "name": "owner",
                    "type": "address"
                },
                {
                    "indexed": true,
                    "internalType": "address",
                    "name": "approved",
                    "type": "address"
                },
                {
                    "indexed": true,
                    "internalType": "uint256",
                    "name": "tokenId",
                    "type": "uint256"
                }
            ],
            "name": "Approval",
            "type": "event"
        },
        {
            "anonymous": false,
            "inputs": [
                {
                    "indexed": true,
                    "internalType": "address",
                    "name": "owner",
                    "type": "address"
                },
                {
                    "indexed": true,
                    "internalType": "address",
                    "name": "operator",
                    "type": "address"
                },
                {
                    "indexed": false,
                    "internalType": "bool",
                    "name": "approved",
                    "type": "bool"
                }
            ],
            "name": "ApprovalForAll",
            "type": "event"
        },
        {
            "anonymous": false,
            "inputs": [
                {
                    "indexed": true,
                    "internalType": "contract IERC20",
                    "name": "token",
                    "type": "address"
                },
                {
                    "indexed": false,
                    "internalType": "address",
                    "name": "to",
                    "type": "address"
                },
                {
                    "indexed": false,
                    "internalType": "uint256",
                    "name": "amount",
                    "type": "uint256"
                }
            ],
            "name": "ERC20PaymentReleased",
            "type": "event"
        },
        {
            "anonymous": false,
            "inputs": [
                {
                    "indexed": true,
                    "internalType": "address",
                    "name": "previousOwner",
                    "type": "address"
                },
                {
                    "indexed": true,
                    "internalType": "address",
                    "name": "newOwner",
                    "type": "address"
                }
            ],
            "name": "OwnershipTransferred",
            "type": "event"
        },
        {
            "anonymous": false,
            "inputs": [
                {
                    "indexed": false,
                    "internalType": "address",
                    "name": "account",
                    "type": "address"
                },
                {
                    "indexed": false,
                    "internalType": "uint256",
                    "name": "shares",
                    "type": "uint256"
                }
            ],
            "name": "PayeeAdded",
            "type": "event"
        },
        {
            "anonymous": false,
            "inputs": [
                {
                    "indexed": false,
                    "internalType": "address",
                    "name": "from",
                    "type": "address"
                },
                {
                    "indexed": false,
                    "internalType": "uint256",
                    "name": "amount",
                    "type": "uint256"
                }
            ],
            "name": "PaymentReceived",
            "type": "event"
        },
        {
            "anonymous": false,
            "inputs": [
                {
                    "indexed": false,
                    "internalType": "address",
                    "name": "to",
                    "type": "address"
                },
                {
                    "indexed": false,
                    "internalType": "uint256",
                    "name": "amount",
                    "type": "uint256"
                }
            ],
            "name": "PaymentReleased",
            "type": "event"
        },
        {
            "anonymous": false,
            "inputs": [
                {
                    "indexed": true,
                    "internalType": "address",
                    "name": "from",
                    "type": "address"
                },
                {
                    "indexed": true,
                    "internalType": "address",
                    "name": "to",
                    "type": "address"
                },
                {
                    "indexed": true,
                    "internalType": "uint256",
                    "name": "tokenId",
                    "type": "uint256"
                }
            ],
            "name": "Transfer",
            "type": "event"
        },
        {
            "inputs": [],
            "name": "MAX_SUPPLY",
            "outputs": [
                {
                    "internalType": "uint256",
                    "name": "",
                    "type": "uint256"
                }
            ],
            "stateMutability": "view",
            "type": "function"
        },
        {
            "inputs": [
                {
                    "internalType": "address",
                    "name": "to",
                    "type": "address"
                },
                {
                    "internalType": "uint256",
                    "name": "tokenId",
                    "type": "uint256"
                }
            ],
            "name": "approve",
            "outputs": [],
            "stateMutability": "nonpayable",
            "type": "function"
        },
        {
            "inputs": [
                {
                    "internalType": "address",
                    "name": "owner",
                    "type": "address"
                }
            ],
            "name": "balanceOf",
            "outputs": [
                {
                    "internalType": "uint256",
                    "name": "",
                    "type": "uint256"
                }
            ],
            "stateMutability": "view",
            "type": "function"
        },
        {
            "inputs": [],
            "name": "baseTokenURI",
            "outputs": [
                {
                    "internalType": "string",
                    "name": "",
                    "type": "string"
                }
            ],
            "stateMutability": "view",
            "type": "function"
        },
        {
            "inputs": [
                {
                    "internalType": "uint256",
                    "name": "tokenId",
                    "type": "uint256"
                }
            ],
            "name": "getApproved",
            "outputs": [
                {
                    "internalType": "address",
                    "name": "",
                    "type": "address"
                }
            ],
            "stateMutability": "view",
            "type": "function"
        },
        {
            "inputs": [
                {
                    "internalType": "uint256",
                    "name": "tokenId",
                    "type": "uint256"
                }
            ],
            "name": "getOwnershipData",
            "outputs": [
                {
                    "components": [
                        {
                            "internalType": "address",
                            "name": "addr",
                            "type": "address"
                        },
                        {
                            "internalType": "uint64",
                            "name": "startTimestamp",
                            "type": "uint64"
                        }
                    ],
                    "internalType": "struct ERC721A.TokenOwnership",
                    "name": "",
                    "type": "tuple"
                }
            ],
            "stateMutability": "view",
            "type": "function"
        },
        {
            "inputs": [
                {
                    "internalType": "uint256[]",
                    "name": "quantity",
                    "type": "uint256[]"
                },
                {
                    "internalType": "address[]",
                    "name": "recipient",
                    "type": "address[]"
                }
            ],
            "name": "gift",
            "outputs": [],
            "stateMutability": "nonpayable",
            "type": "function"
        },
        {
            "inputs": [
                {
                    "internalType": "address",
                    "name": "owner",
                    "type": "address"
                },
                {
                    "internalType": "address",
                    "name": "operator",
                    "type": "address"
                }
            ],
            "name": "isApprovedForAll",
            "outputs": [
                {
                    "internalType": "bool",
                    "name": "",
                    "type": "bool"
                }
            ],
            "stateMutability": "view",
            "type": "function"
        },
        {
            "inputs": [],
            "name": "maxMint",
            "outputs": [
                {
                    "internalType": "uint256",
                    "name": "",
                    "type": "uint256"
                }
            ],
            "stateMutability": "view",
            "type": "function"
        },
        {
            "inputs": [
                {
                    "internalType": "uint256",
                    "name": "_mintAmount",
                    "type": "uint256"
                }
            ],
            "name": "mint",
            "outputs": [],
            "stateMutability": "payable",
            "type": "function"
        },
        {
            "inputs": [
                {
                    "internalType": "uint256",
                    "name": "_mintAmount",
                    "type": "uint256"
                }
            ],
            "name": "mintPresale",
            "outputs": [],
            "stateMutability": "payable",
            "type": "function"
        },
        {
            "inputs": [],
            "name": "name",
            "outputs": [
                {
                    "internalType": "string",
                    "name": "",
                    "type": "string"
                }
            ],
            "stateMutability": "view",
            "type": "function"
        },
        {
            "inputs": [
                {
                    "internalType": "address",
                    "name": "owner",
                    "type": "address"
                }
            ],
            "name": "numberMinted",
            "outputs": [
                {
                    "internalType": "uint256",
                    "name": "",
                    "type": "uint256"
                }
            ],
            "stateMutability": "view",
            "type": "function"
        },
        {
            "inputs": [],
            "name": "owner",
            "outputs": [
                {
                    "internalType": "address",
                    "name": "",
                    "type": "address"
                }
            ],
            "stateMutability": "view",
            "type": "function"
        },
        {
            "inputs": [
                {
                    "internalType": "uint256",
                    "name": "tokenId",
                    "type": "uint256"
                }
            ],
            "name": "ownerOf",
            "outputs": [
                {
                    "internalType": "address",
                    "name": "",
                    "type": "address"
                }
            ],
            "stateMutability": "view",
            "type": "function"
        },
        {
            "inputs": [
                {
                    "internalType": "uint256",
                    "name": "index",
                    "type": "uint256"
                }
            ],
            "name": "payee",
            "outputs": [
                {
                    "internalType": "address",
                    "name": "",
                    "type": "address"
                }
            ],
            "stateMutability": "view",
            "type": "function"
        },
        {
            "inputs": [],
            "name": "presaleTime",
            "outputs": [
                {
                    "internalType": "uint256",
                    "name": "",
                    "type": "uint256"
                }
            ],
            "stateMutability": "view",
            "type": "function"
        },
        {
            "inputs": [],
            "name": "publicTime",
            "outputs": [
                {
                    "internalType": "uint256",
                    "name": "",
                    "type": "uint256"
                }
            ],
            "stateMutability": "view",
            "type": "function"
        },
        {
            "inputs": [
                {
                    "internalType": "address payable",
                    "name": "account",
                    "type": "address"
                }
            ],
            "name": "release",
            "outputs": [],
            "stateMutability": "nonpayable",
            "type": "function"
        },
        {
            "inputs": [
                {
                    "internalType": "contract IERC20",
                    "name": "token",
                    "type": "address"
                },
                {
                    "internalType": "address",
                    "name": "account",
                    "type": "address"
                }
            ],
            "name": "release",
            "outputs": [],
            "stateMutability": "nonpayable",
            "type": "function"
        },
        {
            "inputs": [
                {
                    "internalType": "contract IERC20",
                    "name": "token",
                    "type": "address"
                },
                {
                    "internalType": "address",
                    "name": "account",
                    "type": "address"
                }
            ],
            "name": "released",
            "outputs": [
                {
                    "internalType": "uint256",
                    "name": "",
                    "type": "uint256"
                }
            ],
            "stateMutability": "view",
            "type": "function"
        },
        {
            "inputs": [
                {
                    "internalType": "address",
                    "name": "account",
                    "type": "address"
                }
            ],
            "name": "released",
            "outputs": [
                {
                    "internalType": "uint256",
                    "name": "",
                    "type": "uint256"
                }
            ],
            "stateMutability": "view",
            "type": "function"
        },
        {
            "inputs": [],
            "name": "renounceOwnership",
            "outputs": [],
            "stateMutability": "nonpayable",
            "type": "function"
        },
        {
            "inputs": [
                {
                    "internalType": "address",
                    "name": "from",
                    "type": "address"
                },
                {
                    "internalType": "address",
                    "name": "to",
                    "type": "address"
                },
                {
                    "internalType": "uint256",
                    "name": "tokenId",
                    "type": "uint256"
                }
            ],
            "name": "safeTransferFrom",
            "outputs": [],
            "stateMutability": "nonpayable",
            "type": "function"
        },
        {
            "inputs": [
                {
                    "internalType": "address",
                    "name": "from",
                    "type": "address"
                },
                {
                    "internalType": "address",
                    "name": "to",
                    "type": "address"
                },
                {
                    "internalType": "uint256",
                    "name": "tokenId",
                    "type": "uint256"
                },
                {
                    "internalType": "bytes",
                    "name": "_data",
                    "type": "bytes"
                }
            ],
            "name": "safeTransferFrom",
            "outputs": [],
            "stateMutability": "nonpayable",
            "type": "function"
        },
        {
            "inputs": [],
            "name": "saleIsActive",
            "outputs": [
                {
                    "internalType": "bool",
                    "name": "",
                    "type": "bool"
                }
            ],
            "stateMutability": "view",
            "type": "function"
        },
        {
            "inputs": [
                {
                    "internalType": "address[]",
                    "name": "addresses",
                    "type": "address[]"
                },
                {
                    "internalType": "uint8",
                    "name": "numAllowedToMint",
                    "type": "uint8"
                }
            ],
            "name": "setAllowList",
            "outputs": [],
            "stateMutability": "nonpayable",
            "type": "function"
        },
        {
            "inputs": [
                {
                    "internalType": "address",
                    "name": "operator",
                    "type": "address"
                },
                {
                    "internalType": "bool",
                    "name": "approved",
                    "type": "bool"
                }
            ],
            "name": "setApprovalForAll",
            "outputs": [],
            "stateMutability": "nonpayable",
            "type": "function"
        },
        {
            "inputs": [
                {
                    "internalType": "string",
                    "name": "_newBaseURI",
                    "type": "string"
                }
            ],
            "name": "setBaseURI",
            "outputs": [],
            "stateMutability": "nonpayable",
            "type": "function"
        },
        {
            "inputs": [
                {
                    "internalType": "uint256",
                    "name": "_newPrice",
                    "type": "uint256"
                }
            ],
            "name": "setPrice",
            "outputs": [],
            "stateMutability": "nonpayable",
            "type": "function"
        },
        {
            "inputs": [
                {
                    "internalType": "bool",
                    "name": "newState",
                    "type": "bool"
                }
            ],
            "name": "setSaleState",
            "outputs": [],
            "stateMutability": "nonpayable",
            "type": "function"
        },
        {
            "inputs": [
                {
                    "internalType": "address",
                    "name": "account",
                    "type": "address"
                }
            ],
            "name": "shares",
            "outputs": [
                {
                    "internalType": "uint256",
                    "name": "",
                    "type": "uint256"
                }
            ],
            "stateMutability": "view",
            "type": "function"
        },
        {
            "inputs": [
                {
                    "internalType": "bytes4",
                    "name": "interfaceId",
                    "type": "bytes4"
                }
            ],
            "name": "supportsInterface",
            "outputs": [
                {
                    "internalType": "bool",
                    "name": "",
                    "type": "bool"
                }
            ],
            "stateMutability": "view",
            "type": "function"
        },
        {
            "inputs": [],
            "name": "symbol",
            "outputs": [
                {
                    "internalType": "string",
                    "name": "",
                    "type": "string"
                }
            ],
            "stateMutability": "view",
            "type": "function"
        },
        {
            "inputs": [
                {
                    "internalType": "uint256",
                    "name": "index",
                    "type": "uint256"
                }
            ],
            "name": "tokenByIndex",
            "outputs": [
                {
                    "internalType": "uint256",
                    "name": "",
                    "type": "uint256"
                }
            ],
            "stateMutability": "view",
            "type": "function"
        },
        {
            "inputs": [
                {
                    "internalType": "address",
                    "name": "owner",
                    "type": "address"
                },
                {
                    "internalType": "uint256",
                    "name": "index",
                    "type": "uint256"
                }
            ],
            "name": "tokenOfOwnerByIndex",
            "outputs": [
                {
                    "internalType": "uint256",
                    "name": "",
                    "type": "uint256"
                }
            ],
            "stateMutability": "view",
            "type": "function"
        },
        {
            "inputs": [
                {
                    "internalType": "uint256",
                    "name": "tokenId",
                    "type": "uint256"
                }
            ],
            "name": "tokenURI",
            "outputs": [
                {
                    "internalType": "string",
                    "name": "",
                    "type": "string"
                }
            ],
            "stateMutability": "view",
            "type": "function"
        },
        {
            "inputs": [
                {
                    "internalType": "contract IERC20",
                    "name": "token",
                    "type": "address"
                }
            ],
            "name": "totalReleased",
            "outputs": [
                {
                    "internalType": "uint256",
                    "name": "",
                    "type": "uint256"
                }
            ],
            "stateMutability": "view",
            "type": "function"
        },
        {
            "inputs": [],
            "name": "totalReleased",
            "outputs": [
                {
                    "internalType": "uint256",
                    "name": "",
                    "type": "uint256"
                }
            ],
            "stateMutability": "view",
            "type": "function"
        },
        {
            "inputs": [],
            "name": "totalShares",
            "outputs": [
                {
                    "internalType": "uint256",
                    "name": "",
                    "type": "uint256"
                }
            ],
            "stateMutability": "view",
            "type": "function"
        },
        {
            "inputs": [],
            "name": "totalSupply",
            "outputs": [
                {
                    "internalType": "uint256",
                    "name": "",
                    "type": "uint256"
                }
            ],
            "stateMutability": "view",
            "type": "function"
        },
        {
            "inputs": [
                {
                    "internalType": "address",
                    "name": "from",
                    "type": "address"
                },
                {
                    "internalType": "address",
                    "name": "to",
                    "type": "address"
                },
                {
                    "internalType": "uint256",
                    "name": "tokenId",
                    "type": "uint256"
                }
            ],
            "name": "transferFrom",
            "outputs": [],
            "stateMutability": "nonpayable",
            "type": "function"
        },
        {
            "inputs": [
                {
                    "internalType": "address",
                    "name": "newOwner",
                    "type": "address"
                }
            ],
            "name": "transferOwnership",
            "outputs": [],
            "stateMutability": "nonpayable",
            "type": "function"
        },
        {
            "inputs": [],
            "name": "withdraw",
            "outputs": [],
            "stateMutability": "payable",
            "type": "function"
        },
        {
            "stateMutability": "payable",
            "type": "receive"
        }
    ],
    "bytecode": "0x600080556010805460ff19169055601960125566f8b0a10e470000601355636236aa44601455636236b14c60155560c06040527355c0f20123862ad1f6c1b235d06ccb5ebbe97414608090815273043ec45a905544995c8dc27e8eb03dc2f3b1f1cb60a05262000074906017906002620005cd565b5060408051808201909152605a8152600a60208201526200009a90601890600262000637565b50348015620000a857600080fd5b5060405162003e3338038062003e33833981016040819052620000cb91620007db565b60178054806020026020016040519081016040528092919081815260200182805480156200012357602002820191906000526020600020905b81546001600160a01b0316815260019091019060200180831162000104575b505050505060188054806020026020016040519081016040528092919081815260200182805480156200017657602002820191906000526020600020905b81548152602001906001019080831162000161575b5050875188935087925062000194915060019060208501906200067a565b508051620001aa9060029060208401906200067a565b505050620001c7620001c16200031460201b60201c565b62000318565b8051825114620002395760405162461bcd60e51b815260206004820152603260248201527f5061796d656e7453706c69747465723a2070617965657320616e6420736861726044820152710cae640d8cadccee8d040dad2e6dac2e8c6d60731b60648201526084015b60405180910390fd5b60008251116200028c5760405162461bcd60e51b815260206004820152601a60248201527f5061796d656e7453706c69747465723a206e6f20706179656573000000000000604482015260640162000230565b60005b8251811015620002f857620002e3838281518110620002b257620002b26200086c565b6020026020010151838381518110620002cf57620002cf6200086c565b60200260200101516200036a60201b60201c565b80620002ef8162000898565b9150506200028f565b50506001600f55506200030b8162000558565b5050506200090e565b3390565b600780546001600160a01b038381166001600160a01b0319831681179093556040519116919082907f8be0079c531659141344cd1fd0a4f28419497f9722a3daafe3b4186f6b6457e090600090a35050565b6001600160a01b038216620003d75760405162461bcd60e51b815260206004820152602c60248201527f5061796d656e7453706c69747465723a206163636f756e74206973207468652060448201526b7a65726f206164647265737360a01b606482015260840162000230565b60008111620004295760405162461bcd60e51b815260206004820152601d60248201527f5061796d656e7453706c69747465723a20736861726573206172652030000000604482015260640162000230565b6001600160a01b0382166000908152600a602052604090205415620004a55760405162461bcd60e51b815260206004820152602b60248201527f5061796d656e7453706c69747465723a206163636f756e7420616c726561647960448201526a206861732073686172657360a81b606482015260840162000230565b600c8054600181019091557fdf6966c971051c3d54ec59162606531493a51404a002842f56009d7e5cf4a8c70180546001600160a01b0319166001600160a01b0384169081179091556000908152600a602052604090208190556008546200050f908290620008b6565b600855604080516001600160a01b0384168152602081018390527f40c340f65e17194d14ddddb073d3c9f888e3cb52b5aae0c6c7706b4fbc905fac910160405180910390a15050565b6007546001600160a01b03163314620005b45760405162461bcd60e51b815260206004820181905260248201527f4f776e61626c653a2063616c6c6572206973206e6f7420746865206f776e6572604482015260640162000230565b8051620005c99060119060208401906200067a565b5050565b82805482825590600052602060002090810192821562000625579160200282015b828111156200062557825182546001600160a01b0319166001600160a01b03909116178255602090920191600190910190620005ee565b5062000633929150620006f7565b5090565b82805482825590600052602060002090810192821562000625579160200282015b8281111562000625578251829060ff1690559160200191906001019062000658565b8280546200068890620008d1565b90600052602060002090601f016020900481019282620006ac576000855562000625565b82601f10620006c757805160ff191683800117855562000625565b8280016001018555821562000625579182015b8281111562000625578251825591602001919060010190620006da565b5b80821115620006335760008155600101620006f8565b634e487b7160e01b600052604160045260246000fd5b600082601f8301126200073657600080fd5b81516001600160401b03808211156200075357620007536200070e565b604051601f8301601f19908116603f011681019082821181831017156200077e576200077e6200070e565b816040528381526020925086838588010111156200079b57600080fd5b600091505b83821015620007bf5785820183015181830184015290820190620007a0565b83821115620007d15760008385830101525b9695505050505050565b600080600060608486031215620007f157600080fd5b83516001600160401b03808211156200080957600080fd5b620008178783880162000724565b945060208601519150808211156200082e57600080fd5b6200083c8783880162000724565b935060408601519150808211156200085357600080fd5b50620008628682870162000724565b9150509250925092565b634e487b7160e01b600052603260045260246000fd5b634e487b7160e01b600052601160045260246000fd5b6000600019821415620008af57620008af62000882565b5060010190565b60008219821115620008cc57620008cc62000882565b500190565b600181811c90821680620008e657607f821691505b602082108114156200090857634e487b7160e01b600052602260045260246000fd5b50919050565b613515806200091e6000396000f3fe6080604052600436106102eb5760003560e01c80638b83209b11610184578063c6e62e0b116100d6578063dc33e6811161008a578063eb8d244411610064578063eb8d2444146108c1578063f2fde38b146108db578063f759867a146108fb57600080fd5b8063dc33e68114610843578063e33b7de314610863578063e985e9c51461087857600080fd5b8063ce7c2ac2116100bb578063ce7c2ac2146107c2578063d547cfb7146107f8578063d79779b21461080d57600080fd5b8063c6e62e0b1461078c578063c87b56dd146107a257600080fd5b806396ea3a4711610138578063a22cb46511610112578063a22cb4651461072c578063b88d4fde1461074c578063c4e370951461076c57600080fd5b806396ea3a47146106c35780639852595c146106e3578063a0712d681461071957600080fd5b806391b7f5ed1161016957806391b7f5ed146106405780639231ab2a1461066057806395d89b41146106ae57600080fd5b80638b83209b146106025780638da5cb5b1461062257600080fd5b80633ccfd60b1161023d57806355f804b3116101f1578063715018a6116101cb578063715018a6146105b75780637501f741146105cc5780638295784d146105e257600080fd5b806355f804b3146105575780636352211e1461057757806370a082311461059757600080fd5b806342842e0e1161022257806342842e0e146104f757806348b75044146105175780634f6ccce71461053757600080fd5b80633ccfd60b146104a9578063406072a9146104b157600080fd5b8063191655871161029f5780632f745c59116102795780632f745c591461045f57806332cb6b0c1461047f5780633a98ef391461049457600080fd5b806319165587146104095780631bdc608e1461042957806323b872dd1461043f57600080fd5b8063081812fc116102d0578063081812fc14610390578063095ea7b3146103c857806318160ddd146103ea57600080fd5b806301ffc9a71461033957806306fdde031461036e57600080fd5b36610334577f6ef95f06320e7a25a04a175ca677b7052bdd97131872c2192525a629f51be77033604080516001600160a01b0390921682523460208301520160405180910390a1005b600080fd5b34801561034557600080fd5b50610359610354366004612e82565b61090e565b60405190151581526020015b60405180910390f35b34801561037a57600080fd5b5061038361097b565b6040516103659190612ef7565b34801561039c57600080fd5b506103b06103ab366004612f0a565b610a0d565b6040516001600160a01b039091168152602001610365565b3480156103d457600080fd5b506103e86103e3366004612f38565b610aad565b005b3480156103f657600080fd5b506000545b604051908152602001610365565b34801561041557600080fd5b506103e8610424366004612f64565b610bc5565b34801561043557600080fd5b506103fb60155481565b34801561044b57600080fd5b506103e861045a366004612f81565b610d76565b34801561046b57600080fd5b506103fb61047a366004612f38565b610d81565b34801561048b57600080fd5b506103fb601981565b3480156104a057600080fd5b506008546103fb565b6103e8610efe565b3480156104bd57600080fd5b506103fb6104cc366004612fc2565b6001600160a01b039182166000908152600e6020908152604080832093909416825291909152205490565b34801561050357600080fd5b506103e8610512366004612f81565b610fb0565b34801561052357600080fd5b506103e8610532366004612fc2565b610fcb565b34801561054357600080fd5b506103fb610552366004612f0a565b611227565b34801561056357600080fd5b506103e8610572366004613087565b611289565b34801561058357600080fd5b506103b0610592366004612f0a565b6112fa565b3480156105a357600080fd5b506103fb6105b2366004612f64565b61130c565b3480156105c357600080fd5b506103e86113af565b3480156105d857600080fd5b506103fb60125481565b3480156105ee57600080fd5b506103e86105fd36600461311c565b611415565b34801561060e57600080fd5b506103b061061d366004612f0a565b6114db565b34801561062e57600080fd5b506007546001600160a01b03166103b0565b34801561064c57600080fd5b506103e861065b366004612f0a565b61150b565b34801561066c57600080fd5b5061068061067b366004612f0a565b61156a565b6040805182516001600160a01b0316815260209283015167ffffffffffffffff169281019290925201610365565b3480156106ba57600080fd5b50610383611587565b3480156106cf57600080fd5b506103e86106de366004613179565b611596565b3480156106ef57600080fd5b506103fb6106fe366004612f64565b6001600160a01b03166000908152600b602052604090205490565b6103e8610727366004612f0a565b6116b3565b34801561073857600080fd5b506103e86107473660046131f3565b6118b9565b34801561075857600080fd5b506103e8610767366004613221565b61197e565b34801561077857600080fd5b506103e86107873660046132a1565b6119fd565b34801561079857600080fd5b506103fb60145481565b3480156107ae57600080fd5b506103836107bd366004612f0a565b611a6a565b3480156107ce57600080fd5b506103fb6107dd366004612f64565b6001600160a01b03166000908152600a602052604090205490565b34801561080457600080fd5b50610383611b29565b34801561081957600080fd5b506103fb610828366004612f64565b6001600160a01b03166000908152600d602052604090205490565b34801561084f57600080fd5b506103fb61085e366004612f64565b611bb7565b34801561086f57600080fd5b506009546103fb565b34801561088457600080fd5b50610359610893366004612fc2565b6001600160a01b03918216600090815260066020908152604080832093909416825291909152205460ff1690565b3480156108cd57600080fd5b506010546103599060ff1681565b3480156108e757600080fd5b506103e86108f6366004612f64565b611bc2565b6103e8610909366004612f0a565b611ca1565b60006001600160e01b031982166380ac58cd60e01b148061093f57506001600160e01b03198216635b5e139f60e01b145b8061095a57506001600160e01b0319821663780e9d6360e01b145b8061097557506301ffc9a760e01b6001600160e01b03198316145b92915050565b60606001805461098a906132be565b80601f01602080910402602001604051908101604052809291908181526020018280546109b6906132be565b8015610a035780601f106109d857610100808354040283529160200191610a03565b820191906000526020600020905b8154815290600101906020018083116109e657829003601f168201915b5050505050905090565b6000610a1a826000541190565b610a915760405162461bcd60e51b815260206004820152602d60248201527f455243373231413a20617070726f76656420717565727920666f72206e6f6e6560448201527f78697374656e7420746f6b656e0000000000000000000000000000000000000060648201526084015b60405180910390fd5b506000908152600560205260409020546001600160a01b031690565b6000610ab8826112fa565b9050806001600160a01b0316836001600160a01b03161415610b275760405162461bcd60e51b815260206004820152602260248201527f455243373231413a20617070726f76616c20746f2063757272656e74206f776e60448201526132b960f11b6064820152608401610a88565b336001600160a01b0382161480610b435750610b438133610893565b610bb55760405162461bcd60e51b815260206004820152603960248201527f455243373231413a20617070726f76652063616c6c6572206973206e6f74206f60448201527f776e6572206e6f7220617070726f76656420666f7220616c6c000000000000006064820152608401610a88565b610bc0838383611eaf565b505050565b6001600160a01b0381166000908152600a6020526040902054610c395760405162461bcd60e51b815260206004820152602660248201527f5061796d656e7453706c69747465723a206163636f756e7420686173206e6f2060448201526573686172657360d01b6064820152608401610a88565b6000610c4460095490565b610c4e904761330f565b90506000610c7b8383610c76866001600160a01b03166000908152600b602052604090205490565b611f18565b905080610cde5760405162461bcd60e51b815260206004820152602b60248201527f5061796d656e7453706c69747465723a206163636f756e74206973206e6f742060448201526a191d59481c185e5b595b9d60aa1b6064820152608401610a88565b6001600160a01b0383166000908152600b602052604081208054839290610d0690849061330f565b925050819055508060096000828254610d1f919061330f565b90915550610d2f90508382611f5e565b604080516001600160a01b0385168152602081018390527fdf20fd1e76bc69d672e4814fafb2c449bba3a5369d8359adf9e05e6fde87b056910160405180910390a1505050565b610bc0838383612077565b6000610d8c8361130c565b8210610de55760405162461bcd60e51b815260206004820152602260248201527f455243373231413a206f776e657220696e646578206f7574206f6620626f756e604482015261647360f01b6064820152608401610a88565b600080549080805b83811015610e8f576000818152600360209081526040918290208251808401909352546001600160a01b038116808452600160a01b90910467ffffffffffffffff169183019190915215610e4057805192505b876001600160a01b0316836001600160a01b03161415610e7c5786841415610e6e5750935061097592505050565b83610e7881613327565b9450505b5080610e8781613327565b915050610ded565b5060405162461bcd60e51b815260206004820152602e60248201527f455243373231413a20756e61626c6520746f2067657420746f6b656e206f662060448201527f6f776e657220627920696e6465780000000000000000000000000000000000006064820152608401610a88565b6007546001600160a01b03163314610f585760405162461bcd60e51b815260206004820181905260248201527f4f776e61626c653a2063616c6c6572206973206e6f7420746865206f776e65726044820152606401610a88565b604051600090339047908381818185875af1925050503d8060008114610f9a576040519150601f19603f3d011682016040523d82523d6000602084013e610f9f565b606091505b5050905080610fad57600080fd5b50565b610bc08383836040518060200160405280600081525061197e565b6001600160a01b0381166000908152600a602052604090205461103f5760405162461bcd60e51b815260206004820152602660248201527f5061796d656e7453706c69747465723a206163636f756e7420686173206e6f2060448201526573686172657360d01b6064820152608401610a88565b6001600160a01b0382166000908152600d60205260408120546040516370a0823160e01b81523060048201526001600160a01b038516906370a0823190602401602060405180830381865afa15801561109c573d6000803e3d6000fd5b505050506040513d601f19601f820116820180604052508101906110c09190613342565b6110ca919061330f565b905060006111038383610c7687876001600160a01b039182166000908152600e6020908152604080832093909416825291909152205490565b9050806111665760405162461bcd60e51b815260206004820152602b60248201527f5061796d656e7453706c69747465723a206163636f756e74206973206e6f742060448201526a191d59481c185e5b595b9d60aa1b6064820152608401610a88565b6001600160a01b038085166000908152600e602090815260408083209387168352929052908120805483929061119d90849061330f565b90915550506001600160a01b0384166000908152600d6020526040812080548392906111ca90849061330f565b909155506111db90508484836123f8565b604080516001600160a01b038581168252602082018490528616917f3be5b7a71e84ed12875d241991c70855ac5817d847039e17a9d895c1ceb0f18a910160405180910390a250505050565b6000805482106112855760405162461bcd60e51b815260206004820152602360248201527f455243373231413a20676c6f62616c20696e646578206f7574206f6620626f756044820152626e647360e81b6064820152608401610a88565b5090565b6007546001600160a01b031633146112e35760405162461bcd60e51b815260206004820181905260248201527f4f776e61626c653a2063616c6c6572206973206e6f7420746865206f776e65726044820152606401610a88565b80516112f6906011906020840190612ddc565b5050565b60006113058261245f565b5192915050565b60006001600160a01b03821661138a5760405162461bcd60e51b815260206004820152602b60248201527f455243373231413a2062616c616e636520717565727920666f7220746865207a60448201527f65726f20616464726573730000000000000000000000000000000000000000006064820152608401610a88565b506001600160a01b03166000908152600460205260409020546001600160801b031690565b6007546001600160a01b031633146114095760405162461bcd60e51b815260206004820181905260248201527f4f776e61626c653a2063616c6c6572206973206e6f7420746865206f776e65726044820152606401610a88565b6114136000612552565b565b6007546001600160a01b0316331461146f5760405162461bcd60e51b815260206004820181905260248201527f4f776e61626c653a2063616c6c6572206973206e6f7420746865206f776e65726044820152606401610a88565b60005b828110156114d5578160ff16601660008686858181106114945761149461335b565b90506020020160208101906114a99190612f64565b6001600160a01b03168152602081019190915260400160002055806114cd81613327565b915050611472565b50505050565b6000600c82815481106114f0576114f061335b565b6000918252602090912001546001600160a01b031692915050565b6007546001600160a01b031633146115655760405162461bcd60e51b815260206004820181905260248201527f4f776e61626c653a2063616c6c6572206973206e6f7420746865206f776e65726044820152606401610a88565b601355565b60408051808201909152600080825260208201526109758261245f565b60606002805461098a906132be565b6007546001600160a01b031633146115f05760405162461bcd60e51b815260206004820181905260248201527f4f776e61626c653a2063616c6c6572206973206e6f7420746865206f776e65726044820152606401610a88565b8281146116495760405162461bcd60e51b815260206004820152602160248201527f50726f76696465207175616e74697469657320616e6420726563697069656e746044820152607360f81b6064820152608401610a88565b60005b818110156116ac5761169c8383838181106116695761166961335b565b905060200201602081019061167e9190612f64565b8686848181106116905761169061335b565b905060200201356125b1565b6116a581613327565b905061164c565b5050505050565b3233146117025760405162461bcd60e51b815260206004820152601e60248201527f5468652063616c6c657220697320616e6f7468657220636f6e747261637400006044820152606401610a88565b60105460ff166117545760405162461bcd60e51b815260206004820152601960248201527f5075626c69632073616c65206973206e6f7420616374697665000000000000006044820152606401610a88565b60155442101561176357600080fd5b6012548161177033611bb7565b61177a919061330f565b11156117c85760405162461bcd60e51b815260206004820152601a60248201527f546f6f206d616e792c20706c65617365206d696e74206c6573730000000000006044820152606401610a88565b6019816117d460005490565b6117de919061330f565b11156118525760405162461bcd60e51b815260206004820152602660248201527f507572636861736520776f756c6420657863656564206d617820746f6b656e2060448201527f737570706c7900000000000000000000000000000000000000000000000000006064820152608401610a88565b806013546118609190613371565b3410156118af5760405162461bcd60e51b815260206004820152601f60248201527f45746865722076616c75652073656e74206973206e6f7420636f7272656374006044820152606401610a88565b610fad33826125b1565b6001600160a01b0382163314156119125760405162461bcd60e51b815260206004820152601a60248201527f455243373231413a20617070726f766520746f2063616c6c65720000000000006044820152606401610a88565b3360008181526006602090815260408083206001600160a01b03871680855290835292819020805460ff191686151590811790915590519081529192917f17307eab39ab6107e8899845ad3d59bd9653f200f220920489ca2b5937696c31910160405180910390a35050565b611989848484612077565b611995848484846125cb565b6114d55760405162461bcd60e51b815260206004820152603360248201527f455243373231413a207472616e7366657220746f206e6f6e204552433732315260448201527232b1b2b4bb32b91034b6b83632b6b2b73a32b960691b6064820152608401610a88565b6007546001600160a01b03163314611a575760405162461bcd60e51b815260206004820181905260248201527f4f776e61626c653a2063616c6c6572206973206e6f7420746865206f776e65726044820152606401610a88565b6010805460ff1916911515919091179055565b6060611a77826000541190565b611acd5760405162461bcd60e51b815260206004820152602160248201527f4552433732314d657461646174613a204e6f6e6578697374656e7420746f6b656044820152603760f91b6064820152608401610a88565b6000611ad7612715565b90506000815111611af75760405180602001604052806000815250611b22565b80611b0184612724565b604051602001611b12929190613390565b6040516020818303038152906040525b9392505050565b60118054611b36906132be565b80601f0160208091040260200160405190810160405280929190818152602001828054611b62906132be565b8015611baf5780601f10611b8457610100808354040283529160200191611baf565b820191906000526020600020905b815481529060010190602001808311611b9257829003601f168201915b505050505081565b60006109758261283a565b6007546001600160a01b03163314611c1c5760405162461bcd60e51b815260206004820181905260248201527f4f776e61626c653a2063616c6c6572206973206e6f7420746865206f776e65726044820152606401610a88565b6001600160a01b038116611c985760405162461bcd60e51b815260206004820152602660248201527f4f776e61626c653a206e6577206f776e657220697320746865207a65726f206160448201527f64647265737300000000000000000000000000000000000000000000000000006064820152608401610a88565b610fad81612552565b323314611cf05760405162461bcd60e51b815260206004820152601e60248201527f5468652063616c6c657220697320616e6f7468657220636f6e747261637400006044820152606401610a88565b3360009081526016602052604090205460105460ff1615611d795760405162461bcd60e51b815260206004820152602560248201527f5075626c69632053616c65206973206163746976652c2077726f6e672066756e60448201527f6374696f6e0000000000000000000000000000000000000000000000000000006064820152608401610a88565b601454421015611d8857600080fd5b60008111611dd85760405162461bcd60e51b815260206004820152601f60248201527f6e6f7420656c696769626c6520666f7220616c6c6f776c697374206d696e74006044820152606401610a88565b80821115611e285760405162461bcd60e51b815260206004820152601060248201527f547279206d696e74696e67206c657373000000000000000000000000000000006044820152606401610a88565b81601354611e369190613371565b341015611e855760405162461bcd60e51b815260206004820152601f60248201527f45746865722076616c75652073656e74206973206e6f7420636f7272656374006044820152606401610a88565b611e8f82826133bf565b336000818152601660205260408120929092559091506112f690836125b1565b600082815260056020526040808220805473ffffffffffffffffffffffffffffffffffffffff19166001600160a01b0387811691821790925591518593918516917f8c5be1e5ebec7d5bd14f71427d1e84f3dd0314c0f7b2291e5b200ac8c7c3b92591a4505050565b6008546001600160a01b0384166000908152600a602052604081205490918391611f429086613371565b611f4c91906133ec565b611f5691906133bf565b949350505050565b80471015611fae5760405162461bcd60e51b815260206004820152601d60248201527f416464726573733a20696e73756666696369656e742062616c616e63650000006044820152606401610a88565b6000826001600160a01b03168260405160006040518083038185875af1925050503d8060008114611ffb576040519150601f19603f3d011682016040523d82523d6000602084013e612000565b606091505b5050905080610bc05760405162461bcd60e51b815260206004820152603a60248201527f416464726573733a20756e61626c6520746f2073656e642076616c75652c207260448201527f6563697069656e74206d617920686176652072657665727465640000000000006064820152608401610a88565b60006120828261245f565b80519091506000906001600160a01b0316336001600160a01b031614806120b95750336120ae84610a0d565b6001600160a01b0316145b806120cb575081516120cb9033610893565b9050806121405760405162461bcd60e51b815260206004820152603260248201527f455243373231413a207472616e736665722063616c6c6572206973206e6f742060448201527f6f776e6572206e6f7220617070726f76656400000000000000000000000000006064820152608401610a88565b846001600160a01b031682600001516001600160a01b0316146121cb5760405162461bcd60e51b815260206004820152602660248201527f455243373231413a207472616e736665722066726f6d20696e636f727265637460448201527f206f776e657200000000000000000000000000000000000000000000000000006064820152608401610a88565b6001600160a01b0384166122475760405162461bcd60e51b815260206004820152602560248201527f455243373231413a207472616e7366657220746f20746865207a65726f20616460448201527f64726573730000000000000000000000000000000000000000000000000000006064820152608401610a88565b6122576000848460000151611eaf565b6001600160a01b03858116600090815260046020908152604080832080546fffffffffffffffffffffffffffffffff198082166001600160801b03928316600019018316179092558986168086528386208054938416938316600190810190931693909317909255825180840184529182524267ffffffffffffffff9081168386019081528a8752600390955292852091518254945196166001600160e01b031990941693909317600160a01b9590921694909402179092559061231c90859061330f565b6000818152600360205260409020549091506001600160a01b03166123ae57612346816000541190565b156123ae5760408051808201825284516001600160a01b03908116825260208087015167ffffffffffffffff9081168285019081526000878152600390935294909120925183549451909116600160a01b026001600160e01b03199094169116179190911790555b83856001600160a01b0316876001600160a01b03167fddf252ad1be2c89b69c2b068fc378daa952ba7f163c4a11628f55a4df523b3ef60405160405180910390a45b505050505050565b604080516001600160a01b038416602482015260448082018490528251808303909101815260649091019091526020810180517bffffffffffffffffffffffffffffffffffffffffffffffffffffffff1663a9059cbb60e01b179052610bc09084906128e4565b604080518082019091526000808252602082015261247e826000541190565b6124f05760405162461bcd60e51b815260206004820152602a60248201527f455243373231413a206f776e657220717565727920666f72206e6f6e6578697360448201527f74656e7420746f6b656e000000000000000000000000000000000000000000006064820152608401610a88565b815b6000818152600360209081526040918290208251808401909352546001600160a01b038116808452600160a01b90910467ffffffffffffffff16918301919091521561253f579392505050565b508061254a81613400565b9150506124f2565b600780546001600160a01b0383811673ffffffffffffffffffffffffffffffffffffffff19831681179093556040519116919082907f8be0079c531659141344cd1fd0a4f28419497f9722a3daafe3b4186f6b6457e090600090a35050565b6112f68282604051806020016040528060008152506129c9565b60006001600160a01b0384163b1561270a57604051630a85bd0160e11b81526001600160a01b0385169063150b7a029061260f903390899088908890600401613417565b6020604051808303816000875af192505050801561264a575060408051601f3d908101601f1916820190925261264791810190613453565b60015b6126f0573d808015612678576040519150601f19603f3d011682016040523d82523d6000602084013e61267d565b606091505b5080516126e85760405162461bcd60e51b815260206004820152603360248201527f455243373231413a207472616e7366657220746f206e6f6e204552433732315260448201527232b1b2b4bb32b91034b6b83632b6b2b73a32b960691b6064820152608401610a88565b805181602001fd5b6001600160e01b031916630a85bd0160e11b149050611f56565b506001949350505050565b60606011805461098a906132be565b6060816127485750506040805180820190915260018152600360fc1b602082015290565b8160005b8115612772578061275c81613327565b915061276b9050600a836133ec565b915061274c565b60008167ffffffffffffffff81111561278d5761278d612ffb565b6040519080825280601f01601f1916602001820160405280156127b7576020820181803683370190505b5090505b8415611f56576127cc6001836133bf565b91506127d9600a86613470565b6127e490603061330f565b60f81b8183815181106127f9576127f961335b565b60200101907effffffffffffffffffffffffffffffffffffffffffffffffffffffffffffff1916908160001a905350612833600a866133ec565b94506127bb565b60006001600160a01b0382166128b85760405162461bcd60e51b815260206004820152603160248201527f455243373231413a206e756d626572206d696e74656420717565727920666f7260448201527f20746865207a65726f20616464726573730000000000000000000000000000006064820152608401610a88565b506001600160a01b0316600090815260046020526040902054600160801b90046001600160801b031690565b6000612939826040518060400160405280602081526020017f5361666545524332303a206c6f772d6c6576656c2063616c6c206661696c6564815250856001600160a01b0316612cd19092919063ffffffff16565b805190915015610bc057808060200190518101906129579190613484565b610bc05760405162461bcd60e51b815260206004820152602a60248201527f5361666545524332303a204552433230206f7065726174696f6e20646964206e60448201527f6f742073756363656564000000000000000000000000000000000000000000006064820152608401610a88565b6000546001600160a01b038416612a2c5760405162461bcd60e51b815260206004820152602160248201527f455243373231413a206d696e7420746f20746865207a65726f206164647265736044820152607360f81b6064820152608401610a88565b612a37816000541190565b15612a845760405162461bcd60e51b815260206004820152601d60248201527f455243373231413a20746f6b656e20616c7265616479206d696e7465640000006044820152606401610a88565b60008311612ae05760405162461bcd60e51b815260206004820152602360248201527f455243373231413a207175616e74697479206d7573742062652067726561746560448201526207220360ec1b6064820152608401610a88565b6001600160a01b0384166000908152600460209081526040918290208251808401845290546001600160801b038082168352600160801b9091041691810191909152815180830190925280519091908190612b3c9087906134a1565b6001600160801b03168152602001858360200151612b5a91906134a1565b6001600160801b039081169091526001600160a01b0380881660008181526004602090815260408083208751978301518716600160801b0297909616969096179094558451808601865291825267ffffffffffffffff4281168386019081528883526003909552948120915182549451909516600160a01b026001600160e01b031990941694909216939093179190911790915582905b85811015612cc65760405182906001600160a01b038916906000907fddf252ad1be2c89b69c2b068fc378daa952ba7f163c4a11628f55a4df523b3ef908290a4612c3e60008884886125cb565b612ca65760405162461bcd60e51b815260206004820152603360248201527f455243373231413a207472616e7366657220746f206e6f6e204552433732315260448201527232b1b2b4bb32b91034b6b83632b6b2b73a32b960691b6064820152608401610a88565b81612cb081613327565b9250508080612cbe90613327565b915050612bf1565b5060008190556123f0565b6060611f56848460008585843b612d2a5760405162461bcd60e51b815260206004820152601d60248201527f416464726573733a2063616c6c20746f206e6f6e2d636f6e74726163740000006044820152606401610a88565b600080866001600160a01b03168587604051612d4691906134c3565b60006040518083038185875af1925050503d8060008114612d83576040519150601f19603f3d011682016040523d82523d6000602084013e612d88565b606091505b5091509150612d98828286612da3565b979650505050505050565b60608315612db2575081611b22565b825115612dc25782518084602001fd5b8160405162461bcd60e51b8152600401610a889190612ef7565b828054612de8906132be565b90600052602060002090601f016020900481019282612e0a5760008555612e50565b82601f10612e2357805160ff1916838001178555612e50565b82800160010185558215612e50579182015b82811115612e50578251825591602001919060010190612e35565b506112859291505b808211156112855760008155600101612e58565b6001600160e01b031981168114610fad57600080fd5b600060208284031215612e9457600080fd5b8135611b2281612e6c565b60005b83811015612eba578181015183820152602001612ea2565b838111156114d55750506000910152565b60008151808452612ee3816020860160208601612e9f565b601f01601f19169290920160200192915050565b602081526000611b226020830184612ecb565b600060208284031215612f1c57600080fd5b5035919050565b6001600160a01b0381168114610fad57600080fd5b60008060408385031215612f4b57600080fd5b8235612f5681612f23565b946020939093013593505050565b600060208284031215612f7657600080fd5b8135611b2281612f23565b600080600060608486031215612f9657600080fd5b8335612fa181612f23565b92506020840135612fb181612f23565b929592945050506040919091013590565b60008060408385031215612fd557600080fd5b8235612fe081612f23565b91506020830135612ff081612f23565b809150509250929050565b634e487b7160e01b600052604160045260246000fd5b600067ffffffffffffffff8084111561302c5761302c612ffb565b604051601f8501601f19908116603f0116810190828211818310171561305457613054612ffb565b8160405280935085815286868601111561306d57600080fd5b858560208301376000602087830101525050509392505050565b60006020828403121561309957600080fd5b813567ffffffffffffffff8111156130b057600080fd5b8201601f810184136130c157600080fd5b611f5684823560208401613011565b60008083601f8401126130e257600080fd5b50813567ffffffffffffffff8111156130fa57600080fd5b6020830191508360208260051b850101111561311557600080fd5b9250929050565b60008060006040848603121561313157600080fd5b833567ffffffffffffffff81111561314857600080fd5b613154868287016130d0565b909450925050602084013560ff8116811461316e57600080fd5b809150509250925092565b6000806000806040858703121561318f57600080fd5b843567ffffffffffffffff808211156131a757600080fd5b6131b3888389016130d0565b909650945060208701359150808211156131cc57600080fd5b506131d9878288016130d0565b95989497509550505050565b8015158114610fad57600080fd5b6000806040838503121561320657600080fd5b823561321181612f23565b91506020830135612ff0816131e5565b6000806000806080858703121561323757600080fd5b843561324281612f23565b9350602085013561325281612f23565b925060408501359150606085013567ffffffffffffffff81111561327557600080fd5b8501601f8101871361328657600080fd5b61329587823560208401613011565b91505092959194509250565b6000602082840312156132b357600080fd5b8135611b22816131e5565b600181811c908216806132d257607f821691505b602082108114156132f357634e487b7160e01b600052602260045260246000fd5b50919050565b634e487b7160e01b600052601160045260246000fd5b60008219821115613322576133226132f9565b500190565b600060001982141561333b5761333b6132f9565b5060010190565b60006020828403121561335457600080fd5b5051919050565b634e487b7160e01b600052603260045260246000fd5b600081600019048311821515161561338b5761338b6132f9565b500290565b600083516133a2818460208801612e9f565b8351908301906133b6818360208801612e9f565b01949350505050565b6000828210156133d1576133d16132f9565b500390565b634e487b7160e01b600052601260045260246000fd5b6000826133fb576133fb6133d6565b500490565b60008161340f5761340f6132f9565b506000190190565b60006001600160a01b038087168352808616602084015250836040830152608060608301526134496080830184612ecb565b9695505050505050565b60006020828403121561346557600080fd5b8151611b2281612e6c565b60008261347f5761347f6133d6565b500690565b60006020828403121561349657600080fd5b8151611b22816131e5565b60006001600160801b038083168185168083038211156133b6576133b66132f9565b600082516134d5818460208701612e9f565b919091019291505056fea26469706673582212208dc4eb6f45e767c74061bf7d7dbdf661e0309b3a26a69fc813e28e4732dc906064736f6c634300080b0033",
    "linkReferences": {},
    "deployedLinkReferences": {}
}